{
  "transactions": [
    {
      "hash": "0x223f26a07920f6b8f9c37c13c7a1d6aa12dc79741ff7b56fe5c87bf348536a92",
      "transactionType": "CALL",
      "contractName": null,
      "contractAddress": "0x65601e5107121948e809822565ac843d54c2a073",
      "function": "approve(address,uint256)",
      "arguments": [
        "0x000000000022D473030F116dDEE9F6B43aC78BA3",
        "115792089237316195423570985008687907853269984665640564039457584007913129639935"
      ],
      "transaction": {
        "from": "0x96b366869d7d5e8efd85e516f497ec29f75eceae",
        "to": "0x65601e5107121948e809822565ac843d54c2a073",
        "gas": "0x8f1d",
        "value": "0x0",
        "input": "0x095ea7b3000000000000000000000000000000000022d473030f116ddee9f6b43ac78ba3ffffffffffffffffffffffffffffffffffffffffffffffffffffffffffffffff",
        "nonce": "0x2a",
        "chainId": "0x14a34"
      },
      "additionalContracts": [],
      "isFixedGasLimit": false
    },
    {
      "hash": "0xbf8701e8fbd7c4b812c8a3e80e4d44cc72fb3d1c12ddab891d634480731eec1a",
      "transactionType": "CALL",
      "contractName": null,
      "contractAddress": "0x000000000022d473030f116ddee9f6b43ac78ba3",
      "function": "approve(address,address,uint160,uint48)",
      "arguments": [
        "0x65601e5107121948e809822565Ac843D54c2A073",
        "0x4B2C77d209D3405F41a037Ec6c77F7F5b8e2ca80",
        "1461501637330902918203684832716283019655932542975",
        "281474976710655"
      ],
      "transaction": {
        "from": "0x96b366869d7d5e8efd85e516f497ec29f75eceae",
        "to": "0x000000000022d473030f116ddee9f6b43ac78ba3",
        "gas": "0x96a0",
        "value": "0x0",
        "input": "0x87517c4500000000000000000000000065601e5107121948e809822565ac843d54c2a0730000000000000000000000004b2c77d209d3405f41a037ec6c77f7f5b8e2ca80000000000000000000000000ffffffffffffffffffffffffffffffffffffffff0000000000000000000000000000000000000000000000000000ffffffffffff",
        "nonce": "0x2b",
        "chainId": "0x14a34"
      },
      "additionalContracts": [],
      "isFixedGasLimit": false
    },
    {
      "hash": "0xff865021fb9c48898020410cb1233ba9d5b10fb7cae0c58300fae12ca3d0c017",
      "transactionType": "CALL",
      "contractName": null,
      "contractAddress": "0xcc1d49357aba7f91328e6df60dfc6d09914c9f0e",
      "function": "approve(address,uint256)",
      "arguments": [
        "0x000000000022D473030F116dDEE9F6B43aC78BA3",
        "115792089237316195423570985008687907853269984665640564039457584007913129639935"
      ],
      "transaction": {
        "from": "0x96b366869d7d5e8efd85e516f497ec29f75eceae",
        "to": "0xcc1d49357aba7f91328e6df60dfc6d09914c9f0e",
        "gas": "0x8f1d",
        "value": "0x0",
        "input": "0x095ea7b3000000000000000000000000000000000022d473030f116ddee9f6b43ac78ba3ffffffffffffffffffffffffffffffffffffffffffffffffffffffffffffffff",
        "nonce": "0x2c",
        "chainId": "0x14a34"
      },
      "additionalContracts": [],
      "isFixedGasLimit": false
    },
    {
      "hash": "0x2afc1cd49b1c10e001d37b6a5cd93112e286037d91a2cbf159c5fa725d878871",
      "transactionType": "CALL",
      "contractName": null,
      "contractAddress": "0x000000000022d473030f116ddee9f6b43ac78ba3",
      "function": "approve(address,address,uint160,uint48)",
      "arguments": [
        "0xCC1d49357ABa7f91328e6df60dFC6D09914c9F0E",
        "0x4B2C77d209D3405F41a037Ec6c77F7F5b8e2ca80",
        "1461501637330902918203684832716283019655932542975",
        "281474976710655"
      ],
      "transaction": {
        "from": "0x96b366869d7d5e8efd85e516f497ec29f75eceae",
        "to": "0x000000000022d473030f116ddee9f6b43ac78ba3",
        "gas": "0x96a0",
        "value": "0x0",
        "input": "0x87517c45000000000000000000000000cc1d49357aba7f91328e6df60dfc6d09914c9f0e0000000000000000000000004b2c77d209d3405f41a037ec6c77f7f5b8e2ca80000000000000000000000000ffffffffffffffffffffffffffffffffffffffff0000000000000000000000000000000000000000000000000000ffffffffffff",
        "nonce": "0x2d",
        "chainId": "0x14a34"
      },
      "additionalContracts": [],
      "isFixedGasLimit": false
    },
    {
      "hash": "0xbd1af2878fe651f1c459b0c20d18091c63ffbbbd5b28dd5e43e1f884a18c2a57",
      "transactionType": "CALL",
      "contractName": null,
      "contractAddress": "0x4b2c77d209d3405f41a037ec6c77f7f5b8e2ca80",
      "function": "multicall(bytes[])",
      "arguments": [
        "[0xdd46508f00000000000000000000000000000000000000000000000000000000000000400000000000000000000000000000000000000000000000000000000068d7ea020000000000000000000000000000000000000000000000000000000000000400000000000000000000000000000000000000000000000000000000000000004000000000000000000000000000000000000000000000000000000000000000800000000000000000000000000000000000000000000000000000000000000004020d14140000000000000000000000000000000000000000000000000000000000000000000000000000000000000000000000000000000000000000000000040000000000000000000000000000000000000000000000000000000000000080000000000000000000000000000000000000000000000000000000000000024000000000000000000000000000000000000000000000000000000000000002a0000000000000000000000000000000000000000000000000000000000000030000000000000000000000000000000000000000000000000000000000000001a000000000000000000000000065601e5107121948e809822565ac843d54c2a073000000000000000000000000cc1d49357aba7f91328e6df60dfc6d09914c9f0e0000000000000000000000000000000000000000000000000000000000000bb8000000000000000000000000000000000000000000000000000000000000003c000000000000000000000000f47d8c9d3460acd39b4691a859bc7385d39ee0c0ffffffffffffffffffffffffffffffffffffffffffffffffffffffffffff15a0000000000000000000000000000000000000000000000000000000000000ea600000000000000000000000000000000000000000000000000e9ae3d533801a470000000000000000000000000000000000000000000000000de0b6b3a76400010000000000000000000000000000000000000000000000000de0b6b3a764000100000000000000000000000096b366869d7d5e8efd85e516f497ec29f75eceae00000000000000000000000000000000000000000000000000000000000001800000000000000000000000000000000000000000000000000000000000000000000000000000000000000000000000000000000000000000000000000000004000000000000000000000000065601e5107121948e809822565ac843d54c2a073000000000000000000000000cc1d49357aba7f91328e6df60dfc6d09914c9f0e000000000000000000000000000000000000000000000000000000000000004000000000000000000000000065601e5107121948e809822565ac843d54c2a07300000000000000000000000096b366869d7d5e8efd85e516f497ec29f75eceae0000000000000000000000000000000000000000000000000000000000000040000000000000000000000000cc1d49357aba7f91328e6df60dfc6d09914c9f0e00000000000000000000000096b366869d7d5e8efd85e516f497ec29f75eceae]"
      ],
      "transaction": {
        "from": "0x96b366869d7d5e8efd85e516f497ec29f75eceae",
        "to": "0x4b2c77d209d3405f41a037ec6c77f7f5b8e2ca80",
        "gas": "0x6bf8a",
        "value": "0x0",
        "input": "0xac9650d80000000000000000000000000000000000000000000000000000000000000020000000000000000000000000000000000000000000000000000000000000000100000000000000000000000000000000000000000000000000000000000000200000000000000000000000000000000000000000000000000000000000000464dd46508f00000000000000000000000000000000000000000000000000000000000000400000000000000000000000000000000000000000000000000000000068d7ea020000000000000000000000000000000000000000000000000000000000000400000000000000000000000000000000000000000000000000000000000000004000000000000000000000000000000000000000000000000000000000000000800000000000000000000000000000000000000000000000000000000000000004020d14140000000000000000000000000000000000000000000000000000000000000000000000000000000000000000000000000000000000000000000000040000000000000000000000000000000000000000000000000000000000000080000000000000000000000000000000000000000000000000000000000000024000000000000000000000000000000000000000000000000000000000000002a0000000000000000000000000000000000000000000000000000000000000030000000000000000000000000000000000000000000000000000000000000001a000000000000000000000000065601e5107121948e809822565ac843d54c2a073000000000000000000000000cc1d49357aba7f91328e6df60dfc6d09914c9f0e0000000000000000000000000000000000000000000000000000000000000bb8000000000000000000000000000000000000000000000000000000000000003c000000000000000000000000f47d8c9d3460acd39b4691a859bc7385d39ee0c0ffffffffffffffffffffffffffffffffffffffffffffffffffffffffffff15a0000000000000000000000000000000000000000000000000000000000000ea600000000000000000000000000000000000000000000000000e9ae3d533801a470000000000000000000000000000000000000000000000000de0b6b3a76400010000000000000000000000000000000000000000000000000de0b6b3a764000100000000000000000000000096b366869d7d5e8efd85e516f497ec29f75eceae00000000000000000000000000000000000000000000000000000000000001800000000000000000000000000000000000000000000000000000000000000000000000000000000000000000000000000000000000000000000000000000004000000000000000000000000065601e5107121948e809822565ac843d54c2a073000000000000000000000000cc1d49357aba7f91328e6df60dfc6d09914c9f0e000000000000000000000000000000000000000000000000000000000000004000000000000000000000000065601e5107121948e809822565ac843d54c2a07300000000000000000000000096b366869d7d5e8efd85e516f497ec29f75eceae0000000000000000000000000000000000000000000000000000000000000040000000000000000000000000cc1d49357aba7f91328e6df60dfc6d09914c9f0e00000000000000000000000096b366869d7d5e8efd85e516f497ec29f75eceae00000000000000000000000000000000000000000000000000000000",
        "nonce": "0x2e",
        "chainId": "0x14a34"
      },
      "additionalContracts": [],
      "isFixedGasLimit": false
    }
  ],
  "receipts": [
    {
      "status": "0x1",
      "cumulativeGasUsed": "0x639a1d",
      "logs": [
        {
          "address": "0x65601e5107121948e809822565ac843d54c2a073",
          "topics": [
            "0x8c5be1e5ebec7d5bd14f71427d1e84f3dd0314c0f7b2291e5b200ac8c7c3b925",
            "0x00000000000000000000000096b366869d7d5e8efd85e516f497ec29f75eceae",
            "0x000000000000000000000000000000000022d473030f116ddee9f6b43ac78ba3"
          ],
          "data": "0xffffffffffffffffffffffffffffffffffffffffffffffffffffffffffffffff",
          "blockHash": "0x89ee9b6b2d7dd4e208f76d7d6245bc8cb1e8e888efd4cbefd8dea495ce53b38c",
          "blockNumber": "0x1e24580",
          "blockTimestamp": "0x68d7e9e0",
          "transactionHash": "0x223f26a07920f6b8f9c37c13c7a1d6aa12dc79741ff7b56fe5c87bf348536a92",
          "transactionIndex": "0x11",
          "logIndex": "0x105",
          "removed": false
        }
      ],
      "logsBloom": "0x00000000000000000000000000000000000000000000000000000000000000000000000000000000000000000000000000000000880000000000000000200000000000000000000000004000000000000000000000000800000000000000000000000000000000000000000000000000000000000000000000000000000000000000000000000000000000000000000000000000000000000000000000000000020000000000000000000000000000000000000000000000000000000000000000080800000000000000000000000000000000000000000000000000000020000010000000000000000080000000000000000000000000000000000000010000",
      "type": "0x2",
      "transactionHash": "0x223f26a07920f6b8f9c37c13c7a1d6aa12dc79741ff7b56fe5c87bf348536a92",
      "transactionIndex": "0x11",
      "blockHash": "0x89ee9b6b2d7dd4e208f76d7d6245bc8cb1e8e888efd4cbefd8dea495ce53b38c",
      "blockNumber": "0x1e24580",
      "gasUsed": "0x679e",
      "effectiveGasPrice": "0xf42b9",
      "from": "0x96b366869d7d5e8efd85e516f497ec29f75eceae",
      "to": "0x65601e5107121948e809822565ac843d54c2a073",
      "contractAddress": null,
      "l1BaseFeeScalar": "0x44d",
      "l1BlobBaseFee": "0x5a",
      "l1BlobBaseFeeScalar": "0xa118b",
      "l1Fee": "0x1744",
      "l1GasPrice": "0xa",
      "l1GasUsed": "0x640"
    },
    {
      "status": "0x1",
      "cumulativeGasUsed": "0x64072b",
      "logs": [
        {
          "address": "0x000000000022d473030f116ddee9f6b43ac78ba3",
          "topics": [
            "0xda9fa7c1b00402c17d0161b249b1ab8bbec047c5a52207b9c112deffd817036b",
            "0x00000000000000000000000096b366869d7d5e8efd85e516f497ec29f75eceae",
            "0x00000000000000000000000065601e5107121948e809822565ac843d54c2a073",
            "0x0000000000000000000000004b2c77d209d3405f41a037ec6c77f7f5b8e2ca80"
          ],
          "data": "0x000000000000000000000000ffffffffffffffffffffffffffffffffffffffff0000000000000000000000000000000000000000000000000000ffffffffffff",
          "blockHash": "0x89ee9b6b2d7dd4e208f76d7d6245bc8cb1e8e888efd4cbefd8dea495ce53b38c",
          "blockNumber": "0x1e24580",
          "blockTimestamp": "0x68d7e9e0",
          "transactionHash": "0xbf8701e8fbd7c4b812c8a3e80e4d44cc72fb3d1c12ddab891d634480731eec1a",
          "transactionIndex": "0x12",
          "logIndex": "0x106",
          "removed": false
        }
      ],
      "logsBloom": "0x00010000000000010000000000000000000000000000000000000000000000000000000000000000000000000000000000000000080000000008000010080000000000000000000000000000000000000000000000000000000000004000000000000000000000000000000000000000000000000000000000000000000000000020000000200000000000000000000000000000000000000000000000000000000000000000000000000000000000000000000000000000000000080000000000000800000000800000000000000000000000000000000040000000000000000000000000000000000080000000000000000000000000000000000000000400",
      "type": "0x2",
      "transactionHash": "0xbf8701e8fbd7c4b812c8a3e80e4d44cc72fb3d1c12ddab891d634480731eec1a",
      "transactionIndex": "0x12",
      "blockHash": "0x89ee9b6b2d7dd4e208f76d7d6245bc8cb1e8e888efd4cbefd8dea495ce53b38c",
      "blockNumber": "0x1e24580",
      "gasUsed": "0x6d0e",
      "effectiveGasPrice": "0xf42b9",
      "from": "0x96b366869d7d5e8efd85e516f497ec29f75eceae",
      "to": "0x000000000022d473030f116ddee9f6b43ac78ba3",
      "contractAddress": null,
      "l1BaseFeeScalar": "0x44d",
      "l1BlobBaseFee": "0x5a",
      "l1BlobBaseFeeScalar": "0xa118b",
      "l1Fee": "0x19e7",
      "l1GasPrice": "0xa",
      "l1GasUsed": "0x6f5"
    },
    {
      "status": "0x1",
      "cumulativeGasUsed": "0x646ec9",
      "logs": [
        {
          "address": "0xcc1d49357aba7f91328e6df60dfc6d09914c9f0e",
          "topics": [
            "0x8c5be1e5ebec7d5bd14f71427d1e84f3dd0314c0f7b2291e5b200ac8c7c3b925",
            "0x00000000000000000000000096b366869d7d5e8efd85e516f497ec29f75eceae",
            "0x000000000000000000000000000000000022d473030f116ddee9f6b43ac78ba3"
          ],
          "data": "0xffffffffffffffffffffffffffffffffffffffffffffffffffffffffffffffff",
          "blockHash": "0x89ee9b6b2d7dd4e208f76d7d6245bc8cb1e8e888efd4cbefd8dea495ce53b38c",
          "blockNumber": "0x1e24580",
          "blockTimestamp": "0x68d7e9e0",
          "transactionHash": "0xff865021fb9c48898020410cb1233ba9d5b10fb7cae0c58300fae12ca3d0c017",
          "transactionIndex": "0x13",
          "logIndex": "0x107",
          "removed": false
        }
      ],
      "logsBloom": "0x00000000000000000000000000000000000000000000000000000000000000000000000000000000000000000000000000000000880008000000000000200000000000000000000000004000000000000000000000000800000000000000000000000000000000000000000000000000000000000000000000000000000000000000000000000000000000000000000000000000000000000000000000000000020000000000000000000000000000000000000000000000000000000000000000000800000000000000000000000000000000000000000000000000000000000010004000000000000080000000000000000000008000000000000000000000",
      "type": "0x2",
      "transactionHash": "0xff865021fb9c48898020410cb1233ba9d5b10fb7cae0c58300fae12ca3d0c017",
      "transactionIndex": "0x13",
      "blockHash": "0x89ee9b6b2d7dd4e208f76d7d6245bc8cb1e8e888efd4cbefd8dea495ce53b38c",
      "blockNumber": "0x1e24580",
      "gasUsed": "0x679e",
      "effectiveGasPrice": "0xf42b9",
      "from": "0x96b366869d7d5e8efd85e516f497ec29f75eceae",
      "to": "0xcc1d49357aba7f91328e6df60dfc6d09914c9f0e",
      "contractAddress": null,
      "l1BaseFeeScalar": "0x44d",
      "l1BlobBaseFee": "0x5a",
      "l1BlobBaseFeeScalar": "0xa118b",
      "l1Fee": "0x1744",
      "l1GasPrice": "0xa",
      "l1GasUsed": "0x640"
    },
    {
      "status": "0x1",
      "cumulativeGasUsed": "0x64dbd7",
      "logs": [
        {
          "address": "0x000000000022d473030f116ddee9f6b43ac78ba3",
          "topics": [
            "0xda9fa7c1b00402c17d0161b249b1ab8bbec047c5a52207b9c112deffd817036b",
            "0x00000000000000000000000096b366869d7d5e8efd85e516f497ec29f75eceae",
            "0x000000000000000000000000cc1d49357aba7f91328e6df60dfc6d09914c9f0e",
            "0x0000000000000000000000004b2c77d209d3405f41a037ec6c77f7f5b8e2ca80"
          ],
          "data": "0x000000000000000000000000ffffffffffffffffffffffffffffffffffffffff0000000000000000000000000000000000000000000000000000ffffffffffff",
          "blockHash": "0x89ee9b6b2d7dd4e208f76d7d6245bc8cb1e8e888efd4cbefd8dea495ce53b38c",
          "blockNumber": "0x1e24580",
          "blockTimestamp": "0x68d7e9e0",
          "transactionHash": "0x2afc1cd49b1c10e001d37b6a5cd93112e286037d91a2cbf159c5fa725d878871",
          "transactionIndex": "0x14",
          "logIndex": "0x108",
          "removed": false
        }
      ],
      "logsBloom": "0x00010000000000010000000000000000000000000000000000000000000000000000000000000000000000000000000000000000080000000008000010080000000000000000000000000000000000000000000000000000000000000000000000000000000000000000000000000000000000000040000000000000000000000020000000000000000000000000000000000000000000000000000000000000000000000000000000000000000000000000000000000000000000080000000000000800000400000000000010000000000000000000000040000000000000000000000000000000000080000000000000000000000000000000000000000400",
      "type": "0x2",
      "transactionHash": "0x2afc1cd49b1c10e001d37b6a5cd93112e286037d91a2cbf159c5fa725d878871",
      "transactionIndex": "0x14",
      "blockHash": "0x89ee9b6b2d7dd4e208f76d7d6245bc8cb1e8e888efd4cbefd8dea495ce53b38c",
      "blockNumber": "0x1e24580",
      "gasUsed": "0x6d0e",
      "effectiveGasPrice": "0xf42b9",
      "from": "0x96b366869d7d5e8efd85e516f497ec29f75eceae",
      "to": "0x000000000022d473030f116ddee9f6b43ac78ba3",
      "contractAddress": null,
      "l1BaseFeeScalar": "0x44d",
      "l1BlobBaseFee": "0x5a",
      "l1BlobBaseFeeScalar": "0xa118b",
      "l1Fee": "0x19e7",
      "l1GasPrice": "0xa",
      "l1GasUsed": "0x6f5"
    },
    {
      "status": "0x1",
      "cumulativeGasUsed": "0x69be8d",
      "logs": [
        {
          "address": "0x4b2c77d209d3405f41a037ec6c77f7f5b8e2ca80",
          "topics": [
            "0xddf252ad1be2c89b69c2b068fc378daa952ba7f163c4a11628f55a4df523b3ef",
            "0x0000000000000000000000000000000000000000000000000000000000000000",
            "0x00000000000000000000000096b366869d7d5e8efd85e516f497ec29f75eceae",
            "0x0000000000000000000000000000000000000000000000000000000000001378"
          ],
          "data": "0x",
          "blockHash": "0x89ee9b6b2d7dd4e208f76d7d6245bc8cb1e8e888efd4cbefd8dea495ce53b38c",
          "blockNumber": "0x1e24580",
          "blockTimestamp": "0x68d7e9e0",
          "transactionHash": "0xbd1af2878fe651f1c459b0c20d18091c63ffbbbd5b28dd5e43e1f884a18c2a57",
          "transactionIndex": "0x15",
          "logIndex": "0x109",
          "removed": false
        },
        {
          "address": "0x05e73354cfdd6745c338b50bcfdfa3aa6fa03408",
          "topics": [
            "0xf208f4912782fd25c7f114ca3723a2d5dd6f3bcc3ac8db5af63baa85f711d5ec",
            "0x9425a7b3f51260ddbcd0371e8492158cc6eb704b2d9037c826e6ff2a255a9ca7",
            "0x0000000000000000000000004b2c77d209d3405f41a037ec6c77f7f5b8e2ca80"
          ],
          "data": "0xffffffffffffffffffffffffffffffffffffffffffffffffffffffffffff15a0000000000000000000000000000000000000000000000000000000000000ea600000000000000000000000000000000000000000000000000e9ae3d533801a470000000000000000000000000000000000000000000000000000000000001378",
          "blockHash": "0x89ee9b6b2d7dd4e208f76d7d6245bc8cb1e8e888efd4cbefd8dea495ce53b38c",
          "blockNumber": "0x1e24580",
          "blockTimestamp": "0x68d7e9e0",
          "transactionHash": "0xbd1af2878fe651f1c459b0c20d18091c63ffbbbd5b28dd5e43e1f884a18c2a57",
          "transactionIndex": "0x15",
          "logIndex": "0x10a",
          "removed": false
        },
        {
          "address": "0x65601e5107121948e809822565ac843d54c2a073",
          "topics": [
            "0xddf252ad1be2c89b69c2b068fc378daa952ba7f163c4a11628f55a4df523b3ef",
            "0x00000000000000000000000096b366869d7d5e8efd85e516f497ec29f75eceae",
            "0x00000000000000000000000005e73354cfdd6745c338b50bcfdfa3aa6fa03408"
          ],
          "data": "0x0000000000000000000000000000000000000000000000000de0b6b3a7640000",
          "blockHash": "0x89ee9b6b2d7dd4e208f76d7d6245bc8cb1e8e888efd4cbefd8dea495ce53b38c",
          "blockNumber": "0x1e24580",
          "blockTimestamp": "0x68d7e9e0",
          "transactionHash": "0xbd1af2878fe651f1c459b0c20d18091c63ffbbbd5b28dd5e43e1f884a18c2a57",
          "transactionIndex": "0x15",
          "logIndex": "0x10b",
          "removed": false
        },
        {
          "address": "0xcc1d49357aba7f91328e6df60dfc6d09914c9f0e",
          "topics": [
            "0xddf252ad1be2c89b69c2b068fc378daa952ba7f163c4a11628f55a4df523b3ef",
            "0x00000000000000000000000096b366869d7d5e8efd85e516f497ec29f75eceae",
            "0x00000000000000000000000005e73354cfdd6745c338b50bcfdfa3aa6fa03408"
          ],
          "data": "0x0000000000000000000000000000000000000000000000000de0b6b3a7640000",
          "blockHash": "0x89ee9b6b2d7dd4e208f76d7d6245bc8cb1e8e888efd4cbefd8dea495ce53b38c",
          "blockNumber": "0x1e24580",
          "blockTimestamp": "0x68d7e9e0",
          "transactionHash": "0xbd1af2878fe651f1c459b0c20d18091c63ffbbbd5b28dd5e43e1f884a18c2a57",
          "transactionIndex": "0x15",
          "logIndex": "0x10c",
          "removed": false
        }
      ],
      "logsBloom": "0x00000000000000010000000000000000000000000000000000000000000000000100000100000000000000000000000000000400080008000008000010000800000000000010000000000008000000000000000000100000000000008000000000000000020000000000000000000800000000000001000000000010000000000000000005000000000000000000000000000000000000008000000000000000000004000000000000000000000000000100000004000000000000000000000000080802001000000000000000000000000000000000000000000000000020000000004000000000000080000808000004000000008000000000000000010000",
      "type": "0x2",
      "transactionHash": "0xbd1af2878fe651f1c459b0c20d18091c63ffbbbd5b28dd5e43e1f884a18c2a57",
      "transactionIndex": "0x15",
      "blockHash": "0x89ee9b6b2d7dd4e208f76d7d6245bc8cb1e8e888efd4cbefd8dea495ce53b38c",
      "blockNumber": "0x1e24580",
      "gasUsed": "0x4e2b6",
      "effectiveGasPrice": "0xf42b9",
      "from": "0x96b366869d7d5e8efd85e516f497ec29f75eceae",
      "to": "0x4b2c77d209d3405f41a037ec6c77f7f5b8e2ca80",
      "contractAddress": null,
      "l1BaseFeeScalar": "0x44d",
      "l1BlobBaseFee": "0x5a",
      "l1BlobBaseFeeScalar": "0xa118b",
      "l1Fee": "0x489c",
      "l1GasPrice": "0xa",
      "l1GasUsed": "0x1381"
    }
  ],
  "libraries": [],
  "pending": [],
  "returns": {},
  "timestamp": 1758980577,
  "chain": 84532,
  "commit": "087bbdd"
}