{
  "transactions": [
    {
      "hash": "0x527b1cae0516e3433b322528064e8ebbe555243a872328843c4d0983cfb98fb3",
      "transactionType": "CALL",
      "contractName": null,
      "contractAddress": "0x65601e5107121948e809822565ac843d54c2a073",
      "function": "approve(address,uint256)",
      "arguments": [
        "0x000000000022D473030F116dDEE9F6B43aC78BA3",
        "115792089237316195423570985008687907853269984665640564039457584007913129639935"
      ],
      "transaction": {
        "from": "0x96b366869d7d5e8efd85e516f497ec29f75eceae",
        "to": "0x65601e5107121948e809822565ac843d54c2a073",
        "gas": "0x8f1d",
        "value": "0x0",
        "input": "0x095ea7b3000000000000000000000000000000000022d473030f116ddee9f6b43ac78ba3ffffffffffffffffffffffffffffffffffffffffffffffffffffffffffffffff",
        "nonce": "0x1b",
        "chainId": "0x14a34"
      },
      "additionalContracts": [],
      "isFixedGasLimit": false
    },
    {
      "hash": "0xecad87c5bfdb76c89dcd5acbff4a205741279987204dff7b9f90c46d28bf0950",
      "transactionType": "CALL",
      "contractName": null,
      "contractAddress": "0x000000000022d473030f116ddee9f6b43ac78ba3",
      "function": "approve(address,address,uint160,uint48)",
      "arguments": [
        "0x65601e5107121948e809822565Ac843D54c2A073",
        "0x4B2C77d209D3405F41a037Ec6c77F7F5b8e2ca80",
        "1461501637330902918203684832716283019655932542975",
        "281474976710655"
      ],
      "transaction": {
        "from": "0x96b366869d7d5e8efd85e516f497ec29f75eceae",
        "to": "0x000000000022d473030f116ddee9f6b43ac78ba3",
        "gas": "0x96a0",
        "value": "0x0",
        "input": "0x87517c4500000000000000000000000065601e5107121948e809822565ac843d54c2a0730000000000000000000000004b2c77d209d3405f41a037ec6c77f7f5b8e2ca80000000000000000000000000ffffffffffffffffffffffffffffffffffffffff0000000000000000000000000000000000000000000000000000ffffffffffff",
        "nonce": "0x1c",
        "chainId": "0x14a34"
      },
      "additionalContracts": [],
      "isFixedGasLimit": false
    },
    {
      "hash": "0x9cadc091ea9cea02ffd902ee7d96c412308ddf6b46ae568ae5bfe3ebff0fb325",
      "transactionType": "CALL",
      "contractName": null,
      "contractAddress": "0xcc1d49357aba7f91328e6df60dfc6d09914c9f0e",
      "function": "approve(address,uint256)",
      "arguments": [
        "0x000000000022D473030F116dDEE9F6B43aC78BA3",
        "115792089237316195423570985008687907853269984665640564039457584007913129639935"
      ],
      "transaction": {
        "from": "0x96b366869d7d5e8efd85e516f497ec29f75eceae",
        "to": "0xcc1d49357aba7f91328e6df60dfc6d09914c9f0e",
        "gas": "0x8f1d",
        "value": "0x0",
        "input": "0x095ea7b3000000000000000000000000000000000022d473030f116ddee9f6b43ac78ba3ffffffffffffffffffffffffffffffffffffffffffffffffffffffffffffffff",
        "nonce": "0x1d",
        "chainId": "0x14a34"
      },
      "additionalContracts": [],
      "isFixedGasLimit": false
    },
    {
      "hash": "0xcefd47c10f9e4c686f449c1be7483e41bea5b33a76336682116e7627de70de3d",
      "transactionType": "CALL",
      "contractName": null,
      "contractAddress": "0x000000000022d473030f116ddee9f6b43ac78ba3",
      "function": "approve(address,address,uint160,uint48)",
      "arguments": [
        "0xCC1d49357ABa7f91328e6df60dFC6D09914c9F0E",
        "0x4B2C77d209D3405F41a037Ec6c77F7F5b8e2ca80",
        "1461501637330902918203684832716283019655932542975",
        "281474976710655"
      ],
      "transaction": {
        "from": "0x96b366869d7d5e8efd85e516f497ec29f75eceae",
        "to": "0x000000000022d473030f116ddee9f6b43ac78ba3",
        "gas": "0x96a0",
        "value": "0x0",
        "input": "0x87517c45000000000000000000000000cc1d49357aba7f91328e6df60dfc6d09914c9f0e0000000000000000000000004b2c77d209d3405f41a037ec6c77f7f5b8e2ca80000000000000000000000000ffffffffffffffffffffffffffffffffffffffff0000000000000000000000000000000000000000000000000000ffffffffffff",
        "nonce": "0x1e",
        "chainId": "0x14a34"
      },
      "additionalContracts": [],
      "isFixedGasLimit": false
    },
    {
      "hash": "0x48e71e1c1aebd406b450daf644b9c43986f482b9e03f0c374c4b80bb69445426",
      "transactionType": "CALL",
      "contractName": null,
      "contractAddress": "0x4b2c77d209d3405f41a037ec6c77f7f5b8e2ca80",
      "function": "multicall(bytes[])",
      "arguments": [
        "[0xdd46508f00000000000000000000000000000000000000000000000000000000000000400000000000000000000000000000000000000000000000000000000068d7e7a80000000000000000000000000000000000000000000000000000000000000400000000000000000000000000000000000000000000000000000000000000004000000000000000000000000000000000000000000000000000000000000000800000000000000000000000000000000000000000000000000000000000000004020d14140000000000000000000000000000000000000000000000000000000000000000000000000000000000000000000000000000000000000000000000040000000000000000000000000000000000000000000000000000000000000080000000000000000000000000000000000000000000000000000000000000024000000000000000000000000000000000000000000000000000000000000002a0000000000000000000000000000000000000000000000000000000000000030000000000000000000000000000000000000000000000000000000000000001a000000000000000000000000065601e5107121948e809822565ac843d54c2a073000000000000000000000000cc1d49357aba7f91328e6df60dfc6d09914c9f0e0000000000000000000000000000000000000000000000000000000000000bb8000000000000000000000000000000000000000000000000000000000000003c0000000000000000000000000000000000000000000000000000000000000000ffffffffffffffffffffffffffffffffffffffffffffffffffffffffffff15a0000000000000000000000000000000000000000000000000000000000000ea600000000000000000000000000000000000000000000000000e9ae3d533801a470000000000000000000000000000000000000000000000000de0b6b3a76400010000000000000000000000000000000000000000000000000de0b6b3a764000100000000000000000000000096b366869d7d5e8efd85e516f497ec29f75eceae00000000000000000000000000000000000000000000000000000000000001800000000000000000000000000000000000000000000000000000000000000000000000000000000000000000000000000000000000000000000000000000004000000000000000000000000065601e5107121948e809822565ac843d54c2a073000000000000000000000000cc1d49357aba7f91328e6df60dfc6d09914c9f0e000000000000000000000000000000000000000000000000000000000000004000000000000000000000000065601e5107121948e809822565ac843d54c2a07300000000000000000000000096b366869d7d5e8efd85e516f497ec29f75eceae0000000000000000000000000000000000000000000000000000000000000040000000000000000000000000cc1d49357aba7f91328e6df60dfc6d09914c9f0e00000000000000000000000096b366869d7d5e8efd85e516f497ec29f75eceae]"
      ],
      "transaction": {
        "from": "0x96b366869d7d5e8efd85e516f497ec29f75eceae",
        "to": "0x4b2c77d209d3405f41a037ec6c77f7f5b8e2ca80",
        "gas": "0x6be3f",
        "value": "0x0",
        "input": "0xac9650d80000000000000000000000000000000000000000000000000000000000000020000000000000000000000000000000000000000000000000000000000000000100000000000000000000000000000000000000000000000000000000000000200000000000000000000000000000000000000000000000000000000000000464dd46508f00000000000000000000000000000000000000000000000000000000000000400000000000000000000000000000000000000000000000000000000068d7e7a80000000000000000000000000000000000000000000000000000000000000400000000000000000000000000000000000000000000000000000000000000004000000000000000000000000000000000000000000000000000000000000000800000000000000000000000000000000000000000000000000000000000000004020d14140000000000000000000000000000000000000000000000000000000000000000000000000000000000000000000000000000000000000000000000040000000000000000000000000000000000000000000000000000000000000080000000000000000000000000000000000000000000000000000000000000024000000000000000000000000000000000000000000000000000000000000002a0000000000000000000000000000000000000000000000000000000000000030000000000000000000000000000000000000000000000000000000000000001a000000000000000000000000065601e5107121948e809822565ac843d54c2a073000000000000000000000000cc1d49357aba7f91328e6df60dfc6d09914c9f0e0000000000000000000000000000000000000000000000000000000000000bb8000000000000000000000000000000000000000000000000000000000000003c0000000000000000000000000000000000000000000000000000000000000000ffffffffffffffffffffffffffffffffffffffffffffffffffffffffffff15a0000000000000000000000000000000000000000000000000000000000000ea600000000000000000000000000000000000000000000000000e9ae3d533801a470000000000000000000000000000000000000000000000000de0b6b3a76400010000000000000000000000000000000000000000000000000de0b6b3a764000100000000000000000000000096b366869d7d5e8efd85e516f497ec29f75eceae00000000000000000000000000000000000000000000000000000000000001800000000000000000000000000000000000000000000000000000000000000000000000000000000000000000000000000000000000000000000000000000004000000000000000000000000065601e5107121948e809822565ac843d54c2a073000000000000000000000000cc1d49357aba7f91328e6df60dfc6d09914c9f0e000000000000000000000000000000000000000000000000000000000000004000000000000000000000000065601e5107121948e809822565ac843d54c2a07300000000000000000000000096b366869d7d5e8efd85e516f497ec29f75eceae0000000000000000000000000000000000000000000000000000000000000040000000000000000000000000cc1d49357aba7f91328e6df60dfc6d09914c9f0e00000000000000000000000096b366869d7d5e8efd85e516f497ec29f75eceae00000000000000000000000000000000000000000000000000000000",
        "nonce": "0x1f",
        "chainId": "0x14a34"
      },
      "additionalContracts": [],
      "isFixedGasLimit": false
    }
  ],
  "receipts": [
    {
      "status": "0x1",
      "cumulativeGasUsed": "0x6086a6",
      "logs": [
        {
          "address": "0x65601e5107121948e809822565ac843d54c2a073",
          "topics": [
            "0x8c5be1e5ebec7d5bd14f71427d1e84f3dd0314c0f7b2291e5b200ac8c7c3b925",
            "0x00000000000000000000000096b366869d7d5e8efd85e516f497ec29f75eceae",
            "0x000000000000000000000000000000000022d473030f116ddee9f6b43ac78ba3"
          ],
          "data": "0xffffffffffffffffffffffffffffffffffffffffffffffffffffffffffffffff",
          "blockHash": "0xad717b50eb44ae2fa899086865912865c3812a56c4cbc57e8469c733bd49a98b",
          "blockNumber": "0x1e24451",
          "blockTimestamp": "0x68d7e782",
          "transactionHash": "0x527b1cae0516e3433b322528064e8ebbe555243a872328843c4d0983cfb98fb3",
          "transactionIndex": "0x1c",
          "logIndex": "0xd8",
          "removed": false
        }
      ],
      "logsBloom": "0x00000000000000000000000000000000000000000000000000000000000000000000000000000000000000000000000000000000880000000000000000200000000000000000000000004000000000000000000000000800000000000000000000000000000000000000000000000000000000000000000000000000000000000000000000000000000000000000000000000000000000000000000000000000020000000000000000000000000000000000000000000000000000000000000000080800000000000000000000000000000000000000000000000000000020000010000000000000000080000000000000000000000000000000000000010000",
      "type": "0x2",
      "transactionHash": "0x527b1cae0516e3433b322528064e8ebbe555243a872328843c4d0983cfb98fb3",
      "transactionIndex": "0x1c",
      "blockHash": "0xad717b50eb44ae2fa899086865912865c3812a56c4cbc57e8469c733bd49a98b",
      "blockNumber": "0x1e24451",
      "gasUsed": "0x679e",
      "effectiveGasPrice": "0xf42c0",
      "from": "0x96b366869d7d5e8efd85e516f497ec29f75eceae",
      "to": "0x65601e5107121948e809822565ac843d54c2a073",
      "contractAddress": null,
      "l1BaseFeeScalar": "0x44d",
      "l1BlobBaseFee": "0x55",
      "l1BlobBaseFeeScalar": "0xa118b",
      "l1Fee": "0x15fc",
      "l1GasPrice": "0xb",
      "l1GasUsed": "0x640"
    },
    {
      "status": "0x1",
      "cumulativeGasUsed": "0x60f3b4",
      "logs": [
        {
          "address": "0x000000000022d473030f116ddee9f6b43ac78ba3",
          "topics": [
            "0xda9fa7c1b00402c17d0161b249b1ab8bbec047c5a52207b9c112deffd817036b",
            "0x00000000000000000000000096b366869d7d5e8efd85e516f497ec29f75eceae",
            "0x00000000000000000000000065601e5107121948e809822565ac843d54c2a073",
            "0x0000000000000000000000004b2c77d209d3405f41a037ec6c77f7f5b8e2ca80"
          ],
          "data": "0x000000000000000000000000ffffffffffffffffffffffffffffffffffffffff0000000000000000000000000000000000000000000000000000ffffffffffff",
          "blockHash": "0xad717b50eb44ae2fa899086865912865c3812a56c4cbc57e8469c733bd49a98b",
          "blockNumber": "0x1e24451",
          "blockTimestamp": "0x68d7e782",
          "transactionHash": "0xecad87c5bfdb76c89dcd5acbff4a205741279987204dff7b9f90c46d28bf0950",
          "transactionIndex": "0x1d",
          "logIndex": "0xd9",
          "removed": false
        }
      ],
      "logsBloom": "0x00010000000000010000000000000000000000000000000000000000000000000000000000000000000000000000000000000000080000000008000010080000000000000000000000000000000000000000000000000000000000004000000000000000000000000000000000000000000000000000000000000000000000000020000000200000000000000000000000000000000000000000000000000000000000000000000000000000000000000000000000000000000000080000000000000800000000800000000000000000000000000000000040000000000000000000000000000000000080000000000000000000000000000000000000000400",
      "type": "0x2",
      "transactionHash": "0xecad87c5bfdb76c89dcd5acbff4a205741279987204dff7b9f90c46d28bf0950",
      "transactionIndex": "0x1d",
      "blockHash": "0xad717b50eb44ae2fa899086865912865c3812a56c4cbc57e8469c733bd49a98b",
      "blockNumber": "0x1e24451",
      "gasUsed": "0x6d0e",
      "effectiveGasPrice": "0xf42c0",
      "from": "0x96b366869d7d5e8efd85e516f497ec29f75eceae",
      "to": "0x000000000022d473030f116ddee9f6b43ac78ba3",
      "contractAddress": null,
      "l1BaseFeeScalar": "0x44d",
      "l1BlobBaseFee": "0x55",
      "l1BlobBaseFeeScalar": "0xa118b",
      "l1Fee": "0x1879",
      "l1GasPrice": "0xb",
      "l1GasUsed": "0x6f5"
    },
    {
      "status": "0x1",
      "cumulativeGasUsed": "0xbb487",
      "logs": [
        {
          "address": "0xcc1d49357aba7f91328e6df60dfc6d09914c9f0e",
          "topics": [
            "0x8c5be1e5ebec7d5bd14f71427d1e84f3dd0314c0f7b2291e5b200ac8c7c3b925",
            "0x00000000000000000000000096b366869d7d5e8efd85e516f497ec29f75eceae",
            "0x000000000000000000000000000000000022d473030f116ddee9f6b43ac78ba3"
          ],
          "data": "0xffffffffffffffffffffffffffffffffffffffffffffffffffffffffffffffff",
          "blockHash": "0x749c79a3226a3ef5fff8e797f3774c112d9b81514681ae0c8fd584b78b68f010",
          "blockNumber": "0x1e24452",
          "blockTimestamp": "0x68d7e784",
          "transactionHash": "0x9cadc091ea9cea02ffd902ee7d96c412308ddf6b46ae568ae5bfe3ebff0fb325",
          "transactionIndex": "0x2",
          "logIndex": "0x28",
          "removed": false
        }
      ],
      "logsBloom": "0x00000000000000000000000000000000000000000000000000000000000000000000000000000000000000000000000000000000880008000000000000200000000000000000000000004000000000000000000000000800000000000000000000000000000000000000000000000000000000000000000000000000000000000000000000000000000000000000000000000000000000000000000000000000020000000000000000000000000000000000000000000000000000000000000000000800000000000000000000000000000000000000000000000000000000000010004000000000000080000000000000000000008000000000000000000000",
      "type": "0x2",
      "transactionHash": "0x9cadc091ea9cea02ffd902ee7d96c412308ddf6b46ae568ae5bfe3ebff0fb325",
      "transactionIndex": "0x2",
      "blockHash": "0x749c79a3226a3ef5fff8e797f3774c112d9b81514681ae0c8fd584b78b68f010",
      "blockNumber": "0x1e24452",
      "gasUsed": "0x679e",
      "effectiveGasPrice": "0xf42bf",
      "from": "0x96b366869d7d5e8efd85e516f497ec29f75eceae",
      "to": "0xcc1d49357aba7f91328e6df60dfc6d09914c9f0e",
      "contractAddress": null,
      "l1BaseFeeScalar": "0x44d",
      "l1BlobBaseFee": "0x55",
      "l1BlobBaseFeeScalar": "0xa118b",
      "l1Fee": "0x15fc",
      "l1GasPrice": "0xb",
      "l1GasUsed": "0x640"
    },
    {
      "status": "0x1",
      "cumulativeGasUsed": "0xc2195",
      "logs": [
        {
          "address": "0x000000000022d473030f116ddee9f6b43ac78ba3",
          "topics": [
            "0xda9fa7c1b00402c17d0161b249b1ab8bbec047c5a52207b9c112deffd817036b",
            "0x00000000000000000000000096b366869d7d5e8efd85e516f497ec29f75eceae",
            "0x000000000000000000000000cc1d49357aba7f91328e6df60dfc6d09914c9f0e",
            "0x0000000000000000000000004b2c77d209d3405f41a037ec6c77f7f5b8e2ca80"
          ],
          "data": "0x000000000000000000000000ffffffffffffffffffffffffffffffffffffffff0000000000000000000000000000000000000000000000000000ffffffffffff",
          "blockHash": "0x749c79a3226a3ef5fff8e797f3774c112d9b81514681ae0c8fd584b78b68f010",
          "blockNumber": "0x1e24452",
          "blockTimestamp": "0x68d7e784",
          "transactionHash": "0xcefd47c10f9e4c686f449c1be7483e41bea5b33a76336682116e7627de70de3d",
          "transactionIndex": "0x3",
          "logIndex": "0x29",
          "removed": false
        }
      ],
      "logsBloom": "0x00010000000000010000000000000000000000000000000000000000000000000000000000000000000000000000000000000000080000000008000010080000000000000000000000000000000000000000000000000000000000000000000000000000000000000000000000000000000000000040000000000000000000000020000000000000000000000000000000000000000000000000000000000000000000000000000000000000000000000000000000000000000000080000000000000800000400000000000010000000000000000000000040000000000000000000000000000000000080000000000000000000000000000000000000000400",
      "type": "0x2",
      "transactionHash": "0xcefd47c10f9e4c686f449c1be7483e41bea5b33a76336682116e7627de70de3d",
      "transactionIndex": "0x3",
      "blockHash": "0x749c79a3226a3ef5fff8e797f3774c112d9b81514681ae0c8fd584b78b68f010",
      "blockNumber": "0x1e24452",
      "gasUsed": "0x6d0e",
      "effectiveGasPrice": "0xf42bf",
      "from": "0x96b366869d7d5e8efd85e516f497ec29f75eceae",
      "to": "0x000000000022d473030f116ddee9f6b43ac78ba3",
      "contractAddress": null,
      "l1BaseFeeScalar": "0x44d",
      "l1BlobBaseFee": "0x55",
      "l1BlobBaseFeeScalar": "0xa118b",
      "l1Fee": "0x1879",
      "l1GasPrice": "0xb",
      "l1GasUsed": "0x6f5"
    },
    {
      "status": "0x1",
      "cumulativeGasUsed": "0x11035b",
      "logs": [
        {
          "address": "0x4b2c77d209d3405f41a037ec6c77f7f5b8e2ca80",
          "topics": [
            "0xddf252ad1be2c89b69c2b068fc378daa952ba7f163c4a11628f55a4df523b3ef",
            "0x0000000000000000000000000000000000000000000000000000000000000000",
            "0x00000000000000000000000096b366869d7d5e8efd85e516f497ec29f75eceae",
            "0x0000000000000000000000000000000000000000000000000000000000001376"
          ],
          "data": "0x",
          "blockHash": "0x749c79a3226a3ef5fff8e797f3774c112d9b81514681ae0c8fd584b78b68f010",
          "blockNumber": "0x1e24452",
          "blockTimestamp": "0x68d7e784",
          "transactionHash": "0x48e71e1c1aebd406b450daf644b9c43986f482b9e03f0c374c4b80bb69445426",
          "transactionIndex": "0x4",
          "logIndex": "0x2a",
          "removed": false
        },
        {
          "address": "0x05e73354cfdd6745c338b50bcfdfa3aa6fa03408",
          "topics": [
            "0xf208f4912782fd25c7f114ca3723a2d5dd6f3bcc3ac8db5af63baa85f711d5ec",
            "0x1dff3294f1d312da50650283c90cb452c3662d3711c0fbfb08234e4903093730",
            "0x0000000000000000000000004b2c77d209d3405f41a037ec6c77f7f5b8e2ca80"
          ],
          "data": "0xffffffffffffffffffffffffffffffffffffffffffffffffffffffffffff15a0000000000000000000000000000000000000000000000000000000000000ea600000000000000000000000000000000000000000000000000e9ae3d533801a470000000000000000000000000000000000000000000000000000000000001376",
          "blockHash": "0x749c79a3226a3ef5fff8e797f3774c112d9b81514681ae0c8fd584b78b68f010",
          "blockNumber": "0x1e24452",
          "blockTimestamp": "0x68d7e784",
          "transactionHash": "0x48e71e1c1aebd406b450daf644b9c43986f482b9e03f0c374c4b80bb69445426",
          "transactionIndex": "0x4",
          "logIndex": "0x2b",
          "removed": false
        },
        {
          "address": "0x65601e5107121948e809822565ac843d54c2a073",
          "topics": [
            "0xddf252ad1be2c89b69c2b068fc378daa952ba7f163c4a11628f55a4df523b3ef",
            "0x00000000000000000000000096b366869d7d5e8efd85e516f497ec29f75eceae",
            "0x00000000000000000000000005e73354cfdd6745c338b50bcfdfa3aa6fa03408"
          ],
          "data": "0x0000000000000000000000000000000000000000000000000de0b6b3a7640000",
          "blockHash": "0x749c79a3226a3ef5fff8e797f3774c112d9b81514681ae0c8fd584b78b68f010",
          "blockNumber": "0x1e24452",
          "blockTimestamp": "0x68d7e784",
          "transactionHash": "0x48e71e1c1aebd406b450daf644b9c43986f482b9e03f0c374c4b80bb69445426",
          "transactionIndex": "0x4",
          "logIndex": "0x2c",
          "removed": false
        },
        {
          "address": "0xcc1d49357aba7f91328e6df60dfc6d09914c9f0e",
          "topics": [
            "0xddf252ad1be2c89b69c2b068fc378daa952ba7f163c4a11628f55a4df523b3ef",
            "0x00000000000000000000000096b366869d7d5e8efd85e516f497ec29f75eceae",
            "0x00000000000000000000000005e73354cfdd6745c338b50bcfdfa3aa6fa03408"
          ],
          "data": "0x0000000000000000000000000000000000000000000000000de0b6b3a7640000",
          "blockHash": "0x749c79a3226a3ef5fff8e797f3774c112d9b81514681ae0c8fd584b78b68f010",
          "blockNumber": "0x1e24452",
          "blockTimestamp": "0x68d7e784",
          "transactionHash": "0x48e71e1c1aebd406b450daf644b9c43986f482b9e03f0c374c4b80bb69445426",
          "transactionIndex": "0x4",
          "logIndex": "0x2d",
          "removed": false
        }
      ],
      "logsBloom": "0x00000000000000010000000000000000000000000000000000000000000000000100000100000000000000000000000200000400080008000008000010000800000000000010000100000008000000000000000000100000000000008000000000000000020000000000000000000800000000000000000000000010000000000000000005000000000000000000000000000000000000000000000000000000000004000000000000000000000000000000000000800000000000000000000010080802001000001000000000000000000000000000000000000000000020000000004000000000000080000800000004000000008000000000000000010000",
      "type": "0x2",
      "transactionHash": "0x48e71e1c1aebd406b450daf644b9c43986f482b9e03f0c374c4b80bb69445426",
      "transactionIndex": "0x4",
      "blockHash": "0x749c79a3226a3ef5fff8e797f3774c112d9b81514681ae0c8fd584b78b68f010",
      "blockNumber": "0x1e24452",
      "gasUsed": "0x4e1c6",
      "effectiveGasPrice": "0xf42bf",
      "from": "0x96b366869d7d5e8efd85e516f497ec29f75eceae",
      "to": "0x4b2c77d209d3405f41a037ec6c77f7f5b8e2ca80",
      "contractAddress": null,
      "l1BaseFeeScalar": "0x44d",
      "l1BlobBaseFee": "0x55",
      "l1BlobBaseFeeScalar": "0xa118b",
      "l1Fee": "0x411e",
      "l1GasPrice": "0xb",
      "l1GasUsed": "0x1283"
    }
  ],
  "libraries": [],
  "pending": [],
  "returns": {},
  "timestamp": 1758979972,
  "chain": 84532,
  "commit": "087bbdd"
}