{
  "transactions": [
    {
      "hash": null,
      "transactionType": "CALL",
      "contractName": null,
      "contractAddress": "0x65601e5107121948e809822565ac843d54c2a073",
      "function": "mint(address,uint256)",
      "arguments": [
        "0x96b366869D7D5e8eFD85e516F497ec29f75eCeaE",
        "10000000000000000000000000"
      ],
      "transaction": {
        "from": "0x96b366869d7d5e8efd85e516f497ec29f75eceae",
        "to": "0x65601e5107121948e809822565ac843d54c2a073",
        "gas": "0x170be",
        "value": "0x0",
        "input": "0x40c10f1900000000000000000000000096b366869d7d5e8efd85e516f497ec29f75eceae000000000000000000000000000000000000000000084595161401484a000000",
        "nonce": "0x14",
        "chainId": "0x14a34"
      },
      "additionalContracts": [],
      "isFixedGasLimit": false
    },
    {
      "hash": null,
      "transactionType": "CALL",
      "contractName": null,
      "contractAddress": "0xcc1d49357aba7f91328e6df60dfc6d09914c9f0e",
      "function": "mint(address,uint256)",
      "arguments": [
        "0x96b366869D7D5e8eFD85e516F497ec29f75eCeaE",
        "10000000000000000000000000"
      ],
      "transaction": {
        "from": "0x96b366869d7d5e8efd85e516f497ec29f75eceae",
        "to": "0xcc1d49357aba7f91328e6df60dfc6d09914c9f0e",
        "gas": "0x170be",
        "value": "0x0",
        "input": "0x40c10f1900000000000000000000000096b366869d7d5e8efd85e516f497ec29f75eceae000000000000000000000000000000000000000000084595161401484a000000",
        "nonce": "0x15",
        "chainId": "0x14a34"
      },
      "additionalContracts": [],
      "isFixedGasLimit": false
    }
  ],
  "receipts": [],
  "libraries": [],
  "pending": [],
  "returns": {},
  "timestamp": 1758979577,
  "chain": 84532,
  "commit": "087bbdd"
}