{
  "transactions": [
    {
      "hash": null,
      "transactionType": "CALL",
      "contractName": null,
      "contractAddress": "0xcc1d49357aba7f91328e6df60dfc6d09914c9f0e",
      "function": "approve(address,uint256)",
      "arguments": [
        "0x71cD4Ea054F9Cb3D3BF6251A00673303411A7DD9",
        "115792089237316195423570985008687907853269984665640564039457584007913129639935"
      ],
      "transaction": {
        "from": "0x96b366869d7d5e8efd85e516f497ec29f75eceae",
        "to": "0xcc1d49357aba7f91328e6df60dfc6d09914c9f0e",
        "gas": "0x1097f",
        "value": "0x0",
        "input": "0x095ea7b300000000000000000000000071cd4ea054f9cb3d3bf6251a00673303411a7dd9ffffffffffffffffffffffffffffffffffffffffffffffffffffffffffffffff",
        "nonce": "0x20",
        "chainId": "0x14a34"
      },
      "additionalContracts": [],
      "isFixedGasLimit": false
    },
    {
      "hash": null,
      "transactionType": "CALL",
      "contractName": null,
      "contractAddress": "0x65601e5107121948e809822565ac843d54c2a073",
      "function": "approve(address,uint256)",
      "arguments": [
        "0x71cD4Ea054F9Cb3D3BF6251A00673303411A7DD9",
        "115792089237316195423570985008687907853269984665640564039457584007913129639935"
      ],
      "transaction": {
        "from": "0x96b366869d7d5e8efd85e516f497ec29f75eceae",
        "to": "0x65601e5107121948e809822565ac843d54c2a073",
        "gas": "0x1097f",
        "value": "0x0",
        "input": "0x095ea7b300000000000000000000000071cd4ea054f9cb3d3bf6251a00673303411a7dd9ffffffffffffffffffffffffffffffffffffffffffffffffffffffffffffffff",
        "nonce": "0x21",
        "chainId": "0x14a34"
      },
      "additionalContracts": [],
      "isFixedGasLimit": false
    },
    {
      "hash": null,
      "transactionType": "CALL",
      "contractName": null,
      "contractAddress": "0x71cd4ea054f9cb3d3bf6251a00673303411a7dd9",
      "function": "swapExactTokensForTokens(uint256,uint256,bool,(address,address,uint24,int24,address),bytes,address,uint256)",
      "arguments": [
        "1000000000000000000",
        "0",
        "true",
        "(0x65601e5107121948e809822565Ac843D54c2A073, 0xCC1d49357ABa7f91328e6df60dFC6D09914c9F0E, 3000, 60, 0x0000000000000000000000000000000000000000)",
        "0x",
        "0x96b366869D7D5e8eFD85e516F497ec29f75eCeaE",
        "1758980078"
      ],
      "transaction": {
        "from": "0x96b366869d7d5e8efd85e516f497ec29f75eceae",
        "to": "0x71cd4ea054f9cb3d3bf6251a00673303411a7dd9",
        "gas": "0x2d669",
        "value": "0x0",
        "input": "0xb1a0d5710000000000000000000000000000000000000000000000000de0b6b3a76400000000000000000000000000000000000000000000000000000000000000000000000000000000000000000000000000000000000000000000000000000000000100000000000000000000000065601e5107121948e809822565ac843d54c2a073000000000000000000000000cc1d49357aba7f91328e6df60dfc6d09914c9f0e0000000000000000000000000000000000000000000000000000000000000bb8000000000000000000000000000000000000000000000000000000000000003c0000000000000000000000000000000000000000000000000000000000000000000000000000000000000000000000000000000000000000000000000000016000000000000000000000000096b366869d7d5e8efd85e516f497ec29f75eceae0000000000000000000000000000000000000000000000000000000068d7e7ee0000000000000000000000000000000000000000000000000000000000000000",
        "nonce": "0x22",
        "chainId": "0x14a34"
      },
      "additionalContracts": [],
      "isFixedGasLimit": false
    }
  ],
  "receipts": [],
  "libraries": [],
  "pending": [],
  "returns": {},
  "timestamp": 1758980062,
  "chain": 84532,
  "commit": "087bbdd"
}