{
  "transactions": [
    {
      "hash": "0xd012bf3ad371a2d6c15f925a84d686b3e14dcd7c7b2d8f8e00786e0ee992838d",
      "transactionType": "CALL",
      "contractName": null,
      "contractAddress": "0x65601e5107121948e809822565ac843d54c2a073",
      "function": "mint(address,uint256)",
      "arguments": [
        "0x96b366869D7D5e8eFD85e516F497ec29f75eCeaE",
        "10000000000000000000000000"
      ],
      "transaction": {
        "from": "0x96b366869d7d5e8efd85e516f497ec29f75eceae",
        "to": "0x65601e5107121948e809822565ac843d54c2a073",
        "gas": "0xb836",
        "value": "0x0",
        "input": "0x40c10f1900000000000000000000000096b366869d7d5e8efd85e516f497ec29f75eceae000000000000000000000000000000000000000000084595161401484a000000",
        "nonce": "0x28",
        "chainId": "0x14a34"
      },
      "additionalContracts": [],
      "isFixedGasLimit": false
    },
    {
      "hash": "0x0d6f1e93b9da4ab9cd677c68714fceed9e490c7fbb2e4bf4418755ff200f9ec7",
      "transactionType": "CALL",
      "contractName": null,
      "contractAddress": "0xcc1d49357aba7f91328e6df60dfc6d09914c9f0e",
      "function": "mint(address,uint256)",
      "arguments": [
        "0x96b366869D7D5e8eFD85e516F497ec29f75eCeaE",
        "10000000000000000000000000"
      ],
      "transaction": {
        "from": "0x96b366869d7d5e8efd85e516f497ec29f75eceae",
        "to": "0xcc1d49357aba7f91328e6df60dfc6d09914c9f0e",
        "gas": "0xb836",
        "value": "0x0",
        "input": "0x40c10f1900000000000000000000000096b366869d7d5e8efd85e516f497ec29f75eceae000000000000000000000000000000000000000000084595161401484a000000",
        "nonce": "0x29",
        "chainId": "0x14a34"
      },
      "additionalContracts": [],
      "isFixedGasLimit": false
    }
  ],
  "receipts": [
    {
      "status": "0x1",
      "cumulativeGasUsed": "0x1c0f5a",
      "logs": [
        {
          "address": "0x65601e5107121948e809822565ac843d54c2a073",
          "topics": [
            "0xddf252ad1be2c89b69c2b068fc378daa952ba7f163c4a11628f55a4df523b3ef",
            "0x0000000000000000000000000000000000000000000000000000000000000000",
            "0x00000000000000000000000096b366869d7d5e8efd85e516f497ec29f75eceae"
          ],
          "data": "0x000000000000000000000000000000000000000000084595161401484a000000",
          "blockHash": "0x8e29e392f896927dc9c28c29c1c77837805a30dd40c8461fb2daf76c3e288ad3",
          "blockNumber": "0x1e24569",
          "blockTimestamp": "0x68d7e9b2",
          "transactionHash": "0xd012bf3ad371a2d6c15f925a84d686b3e14dcd7c7b2d8f8e00786e0ee992838d",
          "transactionIndex": "0x6",
          "logIndex": "0x57",
          "removed": false
        }
      ],
      "logsBloom": "0x00000000000000000000000000000000000000000000000000000000000000000000000000000000000000000000000000000000080000000000000000000000000000000000000000000008000000000000000000000000000000000000000000000000020000000000000000000800000000000000000000000010000000000000000000000000000000000000000000000000000000000000000000000000000000000000000000000000000000000000000000000000000000000000000000080802000000000000000000000000000000000000000000000000000020000000000000000000000080000000000000000000000000000000000000010000",
      "type": "0x2",
      "transactionHash": "0xd012bf3ad371a2d6c15f925a84d686b3e14dcd7c7b2d8f8e00786e0ee992838d",
      "transactionIndex": "0x6",
      "blockHash": "0x8e29e392f896927dc9c28c29c1c77837805a30dd40c8461fb2daf76c3e288ad3",
      "blockNumber": "0x1e24569",
      "gasUsed": "0x855f",
      "effectiveGasPrice": "0xf42be",
      "from": "0x96b366869d7d5e8efd85e516f497ec29f75eceae",
      "to": "0x65601e5107121948e809822565ac843d54c2a073",
      "contractAddress": null,
      "l1BaseFeeScalar": "0x44d",
      "l1BlobBaseFee": "0x5f",
      "l1BlobBaseFeeScalar": "0xa118b",
      "l1Fee": "0x188e",
      "l1GasPrice": "0xa",
      "l1GasUsed": "0x640"
    },
    {
      "status": "0x1",
      "cumulativeGasUsed": "0x1c94b9",
      "logs": [
        {
          "address": "0xcc1d49357aba7f91328e6df60dfc6d09914c9f0e",
          "topics": [
            "0xddf252ad1be2c89b69c2b068fc378daa952ba7f163c4a11628f55a4df523b3ef",
            "0x0000000000000000000000000000000000000000000000000000000000000000",
            "0x00000000000000000000000096b366869d7d5e8efd85e516f497ec29f75eceae"
          ],
          "data": "0x000000000000000000000000000000000000000000084595161401484a000000",
          "blockHash": "0x8e29e392f896927dc9c28c29c1c77837805a30dd40c8461fb2daf76c3e288ad3",
          "blockNumber": "0x1e24569",
          "blockTimestamp": "0x68d7e9b2",
          "transactionHash": "0x0d6f1e93b9da4ab9cd677c68714fceed9e490c7fbb2e4bf4418755ff200f9ec7",
          "transactionIndex": "0x7",
          "logIndex": "0x58",
          "removed": false
        }
      ],
      "logsBloom": "0x00000000000000000000000000000000000000000000000000000000000000000000000000000000000000000000000000000000080008000000000000000000000000000000000000000008000000000000000000000000000000000000000000000000020000000000000000000800000000000000000000000010000000000000000000000000000000000000000000000000000000000000000000000000000000000000000000000000000000000000000000000000000000000000000000000802000000000000000000000000000000000000000000000000000020000000004000000000000080000000000000000000008000000000000000000000",
      "type": "0x2",
      "transactionHash": "0x0d6f1e93b9da4ab9cd677c68714fceed9e490c7fbb2e4bf4418755ff200f9ec7",
      "transactionIndex": "0x7",
      "blockHash": "0x8e29e392f896927dc9c28c29c1c77837805a30dd40c8461fb2daf76c3e288ad3",
      "blockNumber": "0x1e24569",
      "gasUsed": "0x855f",
      "effectiveGasPrice": "0xf42be",
      "from": "0x96b366869d7d5e8efd85e516f497ec29f75eceae",
      "to": "0xcc1d49357aba7f91328e6df60dfc6d09914c9f0e",
      "contractAddress": null,
      "l1BaseFeeScalar": "0x44d",
      "l1BlobBaseFee": "0x5f",
      "l1BlobBaseFeeScalar": "0xa118b",
      "l1Fee": "0x188e",
      "l1GasPrice": "0xa",
      "l1GasUsed": "0x640"
    }
  ],
  "libraries": [],
  "pending": [],
  "returns": {},
  "timestamp": 1758980529,
  "chain": 84532,
  "commit": "087bbdd"
}