{
  "transactions": [
    {
      "hash": "0x04fa9d84c78414c2d3b7609eba284d05cddfd896343df7b12c6b1eb01a6b837c",
      "transactionType": "CALL",
      "contractName": null,
      "contractAddress": "0x65601e5107121948e809822565ac843d54c2a073",
      "function": "mint(address,uint256)",
      "arguments": [
        "0x96b366869D7D5e8eFD85e516F497ec29f75eCeaE",
        "10000000000000000000000000"
      ],
      "transaction": {
        "from": "0x96b366869d7d5e8efd85e516f497ec29f75eceae",
        "to": "0x65601e5107121948e809822565ac843d54c2a073",
        "gas": "0x170be",
        "value": "0x0",
        "input": "0x40c10f1900000000000000000000000096b366869d7d5e8efd85e516f497ec29f75eceae000000000000000000000000000000000000000000084595161401484a000000",
        "nonce": "0x14",
        "chainId": "0x14a34"
      },
      "additionalContracts": [],
      "isFixedGasLimit": false
    },
    {
      "hash": "0x247f9fcd9ea7d96813d9bd67f5de999ce74e7e2081d10610aa059c6daf1e49e9",
      "transactionType": "CALL",
      "contractName": null,
      "contractAddress": "0xcc1d49357aba7f91328e6df60dfc6d09914c9f0e",
      "function": "mint(address,uint256)",
      "arguments": [
        "0x96b366869D7D5e8eFD85e516F497ec29f75eCeaE",
        "10000000000000000000000000"
      ],
      "transaction": {
        "from": "0x96b366869d7d5e8efd85e516f497ec29f75eceae",
        "to": "0xcc1d49357aba7f91328e6df60dfc6d09914c9f0e",
        "gas": "0x170be",
        "value": "0x0",
        "input": "0x40c10f1900000000000000000000000096b366869d7d5e8efd85e516f497ec29f75eceae000000000000000000000000000000000000000000084595161401484a000000",
        "nonce": "0x15",
        "chainId": "0x14a34"
      },
      "additionalContracts": [],
      "isFixedGasLimit": false
    }
  ],
  "receipts": [
    {
      "status": "0x1",
      "cumulativeGasUsed": "0x4646db",
      "logs": [
        {
          "address": "0x65601e5107121948e809822565ac843d54c2a073",
          "topics": [
            "0xddf252ad1be2c89b69c2b068fc378daa952ba7f163c4a11628f55a4df523b3ef",
            "0x0000000000000000000000000000000000000000000000000000000000000000",
            "0x00000000000000000000000096b366869d7d5e8efd85e516f497ec29f75eceae"
          ],
          "data": "0x000000000000000000000000000000000000000000084595161401484a000000",
          "blockHash": "0x8d83b6834eafb362db533d4dd1ee8b625831df3ab92d849029ae50f2f25bd6a6",
          "blockNumber": "0x1e24397",
          "blockTimestamp": "0x68d7e60e",
          "transactionHash": "0x04fa9d84c78414c2d3b7609eba284d05cddfd896343df7b12c6b1eb01a6b837c",
          "transactionIndex": "0x12",
          "logIndex": "0x95",
          "removed": false
        }
      ],
      "logsBloom": "0x00000000000000000000000000000000000000000000000000000000000000000000000000000000000000000000000000000000080000000000000000000000000000000000000000000008000000000000000000000000000000000000000000000000020000000000000000000800000000000000000000000010000000000000000000000000000000000000000000000000000000000000000000000000000000000000000000000000000000000000000000000000000000000000000000080802000000000000000000000000000000000000000000000000000020000000000000000000000080000000000000000000000000000000000000010000",
      "type": "0x2",
      "transactionHash": "0x04fa9d84c78414c2d3b7609eba284d05cddfd896343df7b12c6b1eb01a6b837c",
      "transactionIndex": "0x12",
      "blockHash": "0x8d83b6834eafb362db533d4dd1ee8b625831df3ab92d849029ae50f2f25bd6a6",
      "blockNumber": "0x1e24397",
      "gasUsed": "0x10af7",
      "effectiveGasPrice": "0xf42b6",
      "from": "0x96b366869d7d5e8efd85e516f497ec29f75eceae",
      "to": "0x65601e5107121948e809822565ac843d54c2a073",
      "contractAddress": null,
      "l1BaseFeeScalar": "0x44d",
      "l1BlobBaseFee": "0x75",
      "l1BlobBaseFeeScalar": "0xa118b",
      "l1Fee": "0x1e39",
      "l1GasPrice": "0xa",
      "l1GasUsed": "0x640"
    },
    {
      "status": "0x1",
      "cumulativeGasUsed": "0x4751d2",
      "logs": [
        {
          "address": "0xcc1d49357aba7f91328e6df60dfc6d09914c9f0e",
          "topics": [
            "0xddf252ad1be2c89b69c2b068fc378daa952ba7f163c4a11628f55a4df523b3ef",
            "0x0000000000000000000000000000000000000000000000000000000000000000",
            "0x00000000000000000000000096b366869d7d5e8efd85e516f497ec29f75eceae"
          ],
          "data": "0x000000000000000000000000000000000000000000084595161401484a000000",
          "blockHash": "0x4034d9c0052585185bc90b20591afbad17d381f6578be00ad87b55af1b64b896",
          "blockNumber": "0x1e24397",
          "blockTimestamp": "0x68d7e60e",
          "transactionHash": "0x247f9fcd9ea7d96813d9bd67f5de999ce74e7e2081d10610aa059c6daf1e49e9",
          "transactionIndex": "0x13",
          "logIndex": "0x96",
          "removed": false
        }
      ],
      "logsBloom": "0x00000000000000000000000000000000000000000000000000000000000000000000000000000000000000000000000000000000080008000000000000000000000000000000000000000008000000000000000000000000000000000000000000000000020000000000000000000800000000000000000000000010000000000000000000000000000000000000000000000000000000000000000000000000000000000000000000000000000000000000000000000000000000000000000000000802000000000000000000000000000000000000000000000000000020000000004000000000000080000000000000000000008000000000000000000000",
      "type": "0x2",
      "transactionHash": "0x247f9fcd9ea7d96813d9bd67f5de999ce74e7e2081d10610aa059c6daf1e49e9",
      "transactionIndex": "0x13",
      "blockHash": "0x4034d9c0052585185bc90b20591afbad17d381f6578be00ad87b55af1b64b896",
      "blockNumber": "0x1e24397",
      "gasUsed": "0x10af7",
      "effectiveGasPrice": "0xf42b6",
      "from": "0x96b366869d7d5e8efd85e516f497ec29f75eceae",
      "to": "0xcc1d49357aba7f91328e6df60dfc6d09914c9f0e",
      "contractAddress": null,
      "l1BaseFeeScalar": "0x44d",
      "l1BlobBaseFee": "0x75",
      "l1BlobBaseFeeScalar": "0xa118b",
      "l1Fee": "0xc337",
      "l1GasPrice": "0xa",
      "l1GasUsed": "0x640"
    }
  ],
  "libraries": [],
  "pending": [],
  "returns": {},
  "timestamp": 1758979598,
  "chain": 84532,
  "commit": "087bbdd"
}