{
  "transactions": [
    {
      "hash": "0x0f49ed2fc9c1cd5b8ad83877cf929d5903ed756ec481ecbbb5427594fa3790be",
      "transactionType": "CALL",
      "contractName": null,
      "contractAddress": "0x65601e5107121948e809822565ac843d54c2a073",
      "function": "approve(address,uint256)",
      "arguments": [
        "0x000000000022D473030F116dDEE9F6B43aC78BA3",
        "115792089237316195423570985008687907853269984665640564039457584007913129639935"
      ],
      "transaction": {
        "from": "0x96b366869d7d5e8efd85e516f497ec29f75eceae",
        "to": "0x65601e5107121948e809822565ac843d54c2a073",
        "gas": "0x10939",
        "value": "0x0",
        "input": "0x095ea7b3000000000000000000000000000000000022d473030f116ddee9f6b43ac78ba3ffffffffffffffffffffffffffffffffffffffffffffffffffffffffffffffff",
        "nonce": "0x16",
        "chainId": "0x14a34"
      },
      "additionalContracts": [],
      "isFixedGasLimit": false
    },
    {
      "hash": "0x069308c74789b0fe87db63487e9562928e28095ba6654cadc15e24efbc28cbe0",
      "transactionType": "CALL",
      "contractName": null,
      "contractAddress": "0x000000000022d473030f116ddee9f6b43ac78ba3",
      "function": "approve(address,address,uint160,uint48)",
      "arguments": [
        "0x65601e5107121948e809822565Ac843D54c2A073",
        "0x4B2C77d209D3405F41a037Ec6c77F7F5b8e2ca80",
        "1461501637330902918203684832716283019655932542975",
        "281474976710655"
      ],
      "transaction": {
        "from": "0x96b366869d7d5e8efd85e516f497ec29f75eceae",
        "to": "0x000000000022d473030f116ddee9f6b43ac78ba3",
        "gas": "0x1112d",
        "value": "0x0",
        "input": "0x87517c4500000000000000000000000065601e5107121948e809822565ac843d54c2a0730000000000000000000000004b2c77d209d3405f41a037ec6c77f7f5b8e2ca80000000000000000000000000ffffffffffffffffffffffffffffffffffffffff0000000000000000000000000000000000000000000000000000ffffffffffff",
        "nonce": "0x17",
        "chainId": "0x14a34"
      },
      "additionalContracts": [],
      "isFixedGasLimit": false
    },
    {
      "hash": "0x720ad468206b50b9ab645dabb11b747cf5c9f2e30106ad76ec31e0a1030792e0",
      "transactionType": "CALL",
      "contractName": null,
      "contractAddress": "0xcc1d49357aba7f91328e6df60dfc6d09914c9f0e",
      "function": "approve(address,uint256)",
      "arguments": [
        "0x000000000022D473030F116dDEE9F6B43aC78BA3",
        "115792089237316195423570985008687907853269984665640564039457584007913129639935"
      ],
      "transaction": {
        "from": "0x96b366869d7d5e8efd85e516f497ec29f75eceae",
        "to": "0xcc1d49357aba7f91328e6df60dfc6d09914c9f0e",
        "gas": "0x10939",
        "value": "0x0",
        "input": "0x095ea7b3000000000000000000000000000000000022d473030f116ddee9f6b43ac78ba3ffffffffffffffffffffffffffffffffffffffffffffffffffffffffffffffff",
        "nonce": "0x18",
        "chainId": "0x14a34"
      },
      "additionalContracts": [],
      "isFixedGasLimit": false
    },
    {
      "hash": "0x2dfcc04f58285ff8e438bd5ee1e802135c5f22dca066c85fd4380d9b5c49c0c7",
      "transactionType": "CALL",
      "contractName": null,
      "contractAddress": "0x000000000022d473030f116ddee9f6b43ac78ba3",
      "function": "approve(address,address,uint160,uint48)",
      "arguments": [
        "0xCC1d49357ABa7f91328e6df60dFC6D09914c9F0E",
        "0x4B2C77d209D3405F41a037Ec6c77F7F5b8e2ca80",
        "1461501637330902918203684832716283019655932542975",
        "281474976710655"
      ],
      "transaction": {
        "from": "0x96b366869d7d5e8efd85e516f497ec29f75eceae",
        "to": "0x000000000022d473030f116ddee9f6b43ac78ba3",
        "gas": "0x1112d",
        "value": "0x0",
        "input": "0x87517c45000000000000000000000000cc1d49357aba7f91328e6df60dfc6d09914c9f0e0000000000000000000000004b2c77d209d3405f41a037ec6c77f7f5b8e2ca80000000000000000000000000ffffffffffffffffffffffffffffffffffffffff0000000000000000000000000000000000000000000000000000ffffffffffff",
        "nonce": "0x19",
        "chainId": "0x14a34"
      },
      "additionalContracts": [],
      "isFixedGasLimit": false
    },
    {
      "hash": "0xeb12c6cd27d0773b977589d09affa23c9fc189be93679dfc4b4d8db1e60fabda",
      "transactionType": "CALL",
      "contractName": null,
      "contractAddress": "0x4b2c77d209d3405f41a037ec6c77f7f5b8e2ca80",
      "function": "multicall(bytes[])",
      "arguments": [
        "[0xf702040500000000000000000000000065601e5107121948e809822565ac843d54c2a073000000000000000000000000cc1d49357aba7f91328e6df60dfc6d09914c9f0e0000000000000000000000000000000000000000000000000000000000000bb8000000000000000000000000000000000000000000000000000000000000003c0000000000000000000000000000000000000000000000000000000000000000000000000000000000000000000000000000000100000000000000000000000000000000000000000000000000000000000000000000000000000000000000e00000000000000000000000000000000000000000000000000000000000000000, 0xdd46508f00000000000000000000000000000000000000000000000000000000000000400000000000000000000000000000000000000000000000000000000068d7f4b40000000000000000000000000000000000000000000000000000000000000400000000000000000000000000000000000000000000000000000000000000004000000000000000000000000000000000000000000000000000000000000000800000000000000000000000000000000000000000000000000000000000000004020d14140000000000000000000000000000000000000000000000000000000000000000000000000000000000000000000000000000000000000000000000040000000000000000000000000000000000000000000000000000000000000080000000000000000000000000000000000000000000000000000000000000024000000000000000000000000000000000000000000000000000000000000002a0000000000000000000000000000000000000000000000000000000000000030000000000000000000000000000000000000000000000000000000000000001a000000000000000000000000065601e5107121948e809822565ac843d54c2a073000000000000000000000000cc1d49357aba7f91328e6df60dfc6d09914c9f0e0000000000000000000000000000000000000000000000000000000000000bb8000000000000000000000000000000000000000000000000000000000000003c0000000000000000000000000000000000000000000000000000000000000000ffffffffffffffffffffffffffffffffffffffffffffffffffffffffffff5038000000000000000000000000000000000000000000000000000000000000afc80000000000000000000000000000000000000000000000060f4da7fe284f5dea0000000000000000000000000000000000000000000000056bc75e2d631000010000000000000000000000000000000000000000000000056bc75e2d6310000100000000000000000000000096b366869d7d5e8efd85e516f497ec29f75eceae00000000000000000000000000000000000000000000000000000000000001800000000000000000000000000000000000000000000000000000000000000000000000000000000000000000000000000000000000000000000000000000004000000000000000000000000065601e5107121948e809822565ac843d54c2a073000000000000000000000000cc1d49357aba7f91328e6df60dfc6d09914c9f0e000000000000000000000000000000000000000000000000000000000000004000000000000000000000000065601e5107121948e809822565ac843d54c2a07300000000000000000000000096b366869d7d5e8efd85e516f497ec29f75eceae0000000000000000000000000000000000000000000000000000000000000040000000000000000000000000cc1d49357aba7f91328e6df60dfc6d09914c9f0e00000000000000000000000096b366869d7d5e8efd85e516f497ec29f75eceae]"
      ],
      "transaction": {
        "from": "0x96b366869d7d5e8efd85e516f497ec29f75eceae",
        "to": "0x4b2c77d209d3405f41a037ec6c77f7f5b8e2ca80",
        "gas": "0x9d3bf",
        "value": "0x0",
        "input": "0xac9650d800000000000000000000000000000000000000000000000000000000000000200000000000000000000000000000000000000000000000000000000000000002000000000000000000000000000000000000000000000000000000000000004000000000000000000000000000000000000000000000000000000000000001800000000000000000000000000000000000000000000000000000000000000104f702040500000000000000000000000065601e5107121948e809822565ac843d54c2a073000000000000000000000000cc1d49357aba7f91328e6df60dfc6d09914c9f0e0000000000000000000000000000000000000000000000000000000000000bb8000000000000000000000000000000000000000000000000000000000000003c0000000000000000000000000000000000000000000000000000000000000000000000000000000000000000000000000000000100000000000000000000000000000000000000000000000000000000000000000000000000000000000000e00000000000000000000000000000000000000000000000000000000000000000000000000000000000000000000000000000000000000000000000000000000000000000000000000000000000000000000000000000000000000464dd46508f00000000000000000000000000000000000000000000000000000000000000400000000000000000000000000000000000000000000000000000000068d7f4b40000000000000000000000000000000000000000000000000000000000000400000000000000000000000000000000000000000000000000000000000000004000000000000000000000000000000000000000000000000000000000000000800000000000000000000000000000000000000000000000000000000000000004020d14140000000000000000000000000000000000000000000000000000000000000000000000000000000000000000000000000000000000000000000000040000000000000000000000000000000000000000000000000000000000000080000000000000000000000000000000000000000000000000000000000000024000000000000000000000000000000000000000000000000000000000000002a0000000000000000000000000000000000000000000000000000000000000030000000000000000000000000000000000000000000000000000000000000001a000000000000000000000000065601e5107121948e809822565ac843d54c2a073000000000000000000000000cc1d49357aba7f91328e6df60dfc6d09914c9f0e0000000000000000000000000000000000000000000000000000000000000bb8000000000000000000000000000000000000000000000000000000000000003c0000000000000000000000000000000000000000000000000000000000000000ffffffffffffffffffffffffffffffffffffffffffffffffffffffffffff5038000000000000000000000000000000000000000000000000000000000000afc80000000000000000000000000000000000000000000000060f4da7fe284f5dea0000000000000000000000000000000000000000000000056bc75e2d631000010000000000000000000000000000000000000000000000056bc75e2d6310000100000000000000000000000096b366869d7d5e8efd85e516f497ec29f75eceae00000000000000000000000000000000000000000000000000000000000001800000000000000000000000000000000000000000000000000000000000000000000000000000000000000000000000000000000000000000000000000000004000000000000000000000000065601e5107121948e809822565ac843d54c2a073000000000000000000000000cc1d49357aba7f91328e6df60dfc6d09914c9f0e000000000000000000000000000000000000000000000000000000000000004000000000000000000000000065601e5107121948e809822565ac843d54c2a07300000000000000000000000096b366869d7d5e8efd85e516f497ec29f75eceae0000000000000000000000000000000000000000000000000000000000000040000000000000000000000000cc1d49357aba7f91328e6df60dfc6d09914c9f0e00000000000000000000000096b366869d7d5e8efd85e516f497ec29f75eceae00000000000000000000000000000000000000000000000000000000",
        "nonce": "0x1a",
        "chainId": "0x14a34"
      },
      "additionalContracts": [],
      "isFixedGasLimit": false
    }
  ],
  "receipts": [
    {
      "status": "0x1",
      "cumulativeGasUsed": "0x6c0767",
      "logs": [
        {
          "address": "0x65601e5107121948e809822565ac843d54c2a073",
          "topics": [
            "0x8c5be1e5ebec7d5bd14f71427d1e84f3dd0314c0f7b2291e5b200ac8c7c3b925",
            "0x00000000000000000000000096b366869d7d5e8efd85e516f497ec29f75eceae",
            "0x000000000000000000000000000000000022d473030f116ddee9f6b43ac78ba3"
          ],
          "data": "0xffffffffffffffffffffffffffffffffffffffffffffffffffffffffffffffff",
          "blockHash": "0xacf3b5567bf37fa1b2936b74ddef17778ebcfdad0f20185be65098461f38ad09",
          "blockNumber": "0x1e243ee",
          "blockTimestamp": "0x68d7e6bc",
          "transactionHash": "0x0f49ed2fc9c1cd5b8ad83877cf929d5903ed756ec481ecbbb5427594fa3790be",
          "transactionIndex": "0x13",
          "logIndex": "0x8c",
          "removed": false
        }
      ],
      "logsBloom": "0x00000000000000000000000000000000000000000000000000000000000000000000000000000000000000000000000000000000880000000000000000200000000000000000000000004000000000000000000000000800000000000000000000000000000000000000000000000000000000000000000000000000000000000000000000000000000000000000000000000000000000000000000000000000020000000000000000000000000000000000000000000000000000000000000000080800000000000000000000000000000000000000000000000000000020000010000000000000000080000000000000000000000000000000000000010000",
      "type": "0x2",
      "transactionHash": "0x0f49ed2fc9c1cd5b8ad83877cf929d5903ed756ec481ecbbb5427594fa3790be",
      "transactionIndex": "0x13",
      "blockHash": "0xacf3b5567bf37fa1b2936b74ddef17778ebcfdad0f20185be65098461f38ad09",
      "blockNumber": "0x1e243ee",
      "gasUsed": "0xb55a",
      "effectiveGasPrice": "0xf42af",
      "from": "0x96b366869d7d5e8efd85e516f497ec29f75eceae",
      "to": "0x65601e5107121948e809822565ac843d54c2a073",
      "contractAddress": null,
      "l1BaseFeeScalar": "0x44d",
      "l1BlobBaseFee": "0x6f",
      "l1BlobBaseFeeScalar": "0xa118b",
      "l1Fee": "0x1caf",
      "l1GasPrice": "0xb",
      "l1GasUsed": "0x640"
    },
    {
      "status": "0x1",
      "cumulativeGasUsed": "0x6cc231",
      "logs": [
        {
          "address": "0x000000000022d473030f116ddee9f6b43ac78ba3",
          "topics": [
            "0xda9fa7c1b00402c17d0161b249b1ab8bbec047c5a52207b9c112deffd817036b",
            "0x00000000000000000000000096b366869d7d5e8efd85e516f497ec29f75eceae",
            "0x00000000000000000000000065601e5107121948e809822565ac843d54c2a073",
            "0x0000000000000000000000004b2c77d209d3405f41a037ec6c77f7f5b8e2ca80"
          ],
          "data": "0x000000000000000000000000ffffffffffffffffffffffffffffffffffffffff0000000000000000000000000000000000000000000000000000ffffffffffff",
          "blockHash": "0x6ec40f0c8a8d083ca170e138cafe856224ff1ce27b52bc6e25bb3bb4bf6a9d79",
          "blockNumber": "0x1e243ee",
          "blockTimestamp": "0x68d7e6bc",
          "transactionHash": "0x069308c74789b0fe87db63487e9562928e28095ba6654cadc15e24efbc28cbe0",
          "transactionIndex": "0x14",
          "logIndex": "0x8d",
          "removed": false
        }
      ],
      "logsBloom": "0x00010000000000010000000000000000000000000000000000000000000000000000000000000000000000000000000000000000080000000008000010080000000000000000000000000000000000000000000000000000000000004000000000000000000000000000000000000000000000000000000000000000000000000020000000200000000000000000000000000000000000000000000000000000000000000000000000000000000000000000000000000000000000080000000000000800000000800000000000000000000000000000000040000000000000000000000000000000000080000000000000000000000000000000000000000400",
      "type": "0x2",
      "transactionHash": "0x069308c74789b0fe87db63487e9562928e28095ba6654cadc15e24efbc28cbe0",
      "transactionIndex": "0x14",
      "blockHash": "0x6ec40f0c8a8d083ca170e138cafe856224ff1ce27b52bc6e25bb3bb4bf6a9d79",
      "blockNumber": "0x1e243ee",
      "gasUsed": "0xbaca",
      "effectiveGasPrice": "0xf42af",
      "from": "0x96b366869d7d5e8efd85e516f497ec29f75eceae",
      "to": "0x000000000022d473030f116ddee9f6b43ac78ba3",
      "contractAddress": null,
      "l1BaseFeeScalar": "0x44d",
      "l1BlobBaseFee": "0x6f",
      "l1BlobBaseFeeScalar": "0xa118b",
      "l1Fee": "0x202d",
      "l1GasPrice": "0xb",
      "l1GasUsed": "0x702"
    },
    {
      "status": "0x1",
      "cumulativeGasUsed": "0x6d778b",
      "logs": [
        {
          "address": "0xcc1d49357aba7f91328e6df60dfc6d09914c9f0e",
          "topics": [
            "0x8c5be1e5ebec7d5bd14f71427d1e84f3dd0314c0f7b2291e5b200ac8c7c3b925",
            "0x00000000000000000000000096b366869d7d5e8efd85e516f497ec29f75eceae",
            "0x000000000000000000000000000000000022d473030f116ddee9f6b43ac78ba3"
          ],
          "data": "0xffffffffffffffffffffffffffffffffffffffffffffffffffffffffffffffff",
          "blockHash": "0xacf3b5567bf37fa1b2936b74ddef17778ebcfdad0f20185be65098461f38ad09",
          "blockNumber": "0x1e243ee",
          "blockTimestamp": "0x68d7e6bc",
          "transactionHash": "0x720ad468206b50b9ab645dabb11b747cf5c9f2e30106ad76ec31e0a1030792e0",
          "transactionIndex": "0x15",
          "logIndex": "0x8e",
          "removed": false
        }
      ],
      "logsBloom": "0x00000000000000000000000000000000000000000000000000000000000000000000000000000000000000000000000000000000880008000000000000200000000000000000000000004000000000000000000000000800000000000000000000000000000000000000000000000000000000000000000000000000000000000000000000000000000000000000000000000000000000000000000000000000020000000000000000000000000000000000000000000000000000000000000000000800000000000000000000000000000000000000000000000000000000000010004000000000000080000000000000000000008000000000000000000000",
      "type": "0x2",
      "transactionHash": "0x720ad468206b50b9ab645dabb11b747cf5c9f2e30106ad76ec31e0a1030792e0",
      "transactionIndex": "0x15",
      "blockHash": "0xacf3b5567bf37fa1b2936b74ddef17778ebcfdad0f20185be65098461f38ad09",
      "blockNumber": "0x1e243ee",
      "gasUsed": "0xb55a",
      "effectiveGasPrice": "0xf42af",
      "from": "0x96b366869d7d5e8efd85e516f497ec29f75eceae",
      "to": "0xcc1d49357aba7f91328e6df60dfc6d09914c9f0e",
      "contractAddress": null,
      "l1BaseFeeScalar": "0x44d",
      "l1BlobBaseFee": "0x6f",
      "l1BlobBaseFeeScalar": "0xa118b",
      "l1Fee": "0x1caf",
      "l1GasPrice": "0xb",
      "l1GasUsed": "0x640"
    },
    {
      "status": "0x1",
      "cumulativeGasUsed": "0x6e3255",
      "logs": [
        {
          "address": "0x000000000022d473030f116ddee9f6b43ac78ba3",
          "topics": [
            "0xda9fa7c1b00402c17d0161b249b1ab8bbec047c5a52207b9c112deffd817036b",
            "0x00000000000000000000000096b366869d7d5e8efd85e516f497ec29f75eceae",
            "0x000000000000000000000000cc1d49357aba7f91328e6df60dfc6d09914c9f0e",
            "0x0000000000000000000000004b2c77d209d3405f41a037ec6c77f7f5b8e2ca80"
          ],
          "data": "0x000000000000000000000000ffffffffffffffffffffffffffffffffffffffff0000000000000000000000000000000000000000000000000000ffffffffffff",
          "blockHash": "0xacf3b5567bf37fa1b2936b74ddef17778ebcfdad0f20185be65098461f38ad09",
          "blockNumber": "0x1e243ee",
          "blockTimestamp": "0x68d7e6bc",
          "transactionHash": "0x2dfcc04f58285ff8e438bd5ee1e802135c5f22dca066c85fd4380d9b5c49c0c7",
          "transactionIndex": "0x16",
          "logIndex": "0x8f",
          "removed": false
        }
      ],
      "logsBloom": "0x00010000000000010000000000000000000000000000000000000000000000000000000000000000000000000000000000000000080000000008000010080000000000000000000000000000000000000000000000000000000000000000000000000000000000000000000000000000000000000040000000000000000000000020000000000000000000000000000000000000000000000000000000000000000000000000000000000000000000000000000000000000000000080000000000000800000400000000000010000000000000000000000040000000000000000000000000000000000080000000000000000000000000000000000000000400",
      "type": "0x2",
      "transactionHash": "0x2dfcc04f58285ff8e438bd5ee1e802135c5f22dca066c85fd4380d9b5c49c0c7",
      "transactionIndex": "0x16",
      "blockHash": "0xacf3b5567bf37fa1b2936b74ddef17778ebcfdad0f20185be65098461f38ad09",
      "blockNumber": "0x1e243ee",
      "gasUsed": "0xbaca",
      "effectiveGasPrice": "0xf42af",
      "from": "0x96b366869d7d5e8efd85e516f497ec29f75eceae",
      "to": "0x000000000022d473030f116ddee9f6b43ac78ba3",
      "contractAddress": null,
      "l1BaseFeeScalar": "0x44d",
      "l1BlobBaseFee": "0x6f",
      "l1BlobBaseFeeScalar": "0xa118b",
      "l1Fee": "0x1caf",
      "l1GasPrice": "0xb",
      "l1GasUsed": "0x702"
    },
    {
      "status": "0x1",
      "cumulativeGasUsed": "0x754fb1",
      "logs": [
        {
          "address": "0x05e73354cfdd6745c338b50bcfdfa3aa6fa03408",
          "topics": [
            "0xdd466e674ea557f56295e2d0218a125ea4b4f0f6f3307b95f85e6110838d6438",
            "0x1dff3294f1d312da50650283c90cb452c3662d3711c0fbfb08234e4903093730",
            "0x00000000000000000000000065601e5107121948e809822565ac843d54c2a073",
            "0x000000000000000000000000cc1d49357aba7f91328e6df60dfc6d09914c9f0e"
          ],
          "data": "0x0000000000000000000000000000000000000000000000000000000000000bb8000000000000000000000000000000000000000000000000000000000000003c000000000000000000000000000000000000000000000000000000000000000000000000000000000000000000000000000000010000000000000000000000000000000000000000000000000000000000000000000000000000000000000000",
          "blockHash": "0xacf3b5567bf37fa1b2936b74ddef17778ebcfdad0f20185be65098461f38ad09",
          "blockNumber": "0x1e243ee",
          "blockTimestamp": "0x68d7e6bc",
          "transactionHash": "0xeb12c6cd27d0773b977589d09affa23c9fc189be93679dfc4b4d8db1e60fabda",
          "transactionIndex": "0x17",
          "logIndex": "0x90",
          "removed": false
        },
        {
          "address": "0x4b2c77d209d3405f41a037ec6c77f7f5b8e2ca80",
          "topics": [
            "0xddf252ad1be2c89b69c2b068fc378daa952ba7f163c4a11628f55a4df523b3ef",
            "0x0000000000000000000000000000000000000000000000000000000000000000",
            "0x00000000000000000000000096b366869d7d5e8efd85e516f497ec29f75eceae",
            "0x0000000000000000000000000000000000000000000000000000000000001375"
          ],
          "data": "0x",
          "blockHash": "0xacf3b5567bf37fa1b2936b74ddef17778ebcfdad0f20185be65098461f38ad09",
          "blockNumber": "0x1e243ee",
          "blockTimestamp": "0x68d7e6bc",
          "transactionHash": "0xeb12c6cd27d0773b977589d09affa23c9fc189be93679dfc4b4d8db1e60fabda",
          "transactionIndex": "0x17",
          "logIndex": "0x91",
          "removed": false
        },
        {
          "address": "0x05e73354cfdd6745c338b50bcfdfa3aa6fa03408",
          "topics": [
            "0xf208f4912782fd25c7f114ca3723a2d5dd6f3bcc3ac8db5af63baa85f711d5ec",
            "0x1dff3294f1d312da50650283c90cb452c3662d3711c0fbfb08234e4903093730",
            "0x0000000000000000000000004b2c77d209d3405f41a037ec6c77f7f5b8e2ca80"
          ],
          "data": "0xffffffffffffffffffffffffffffffffffffffffffffffffffffffffffff5038000000000000000000000000000000000000000000000000000000000000afc80000000000000000000000000000000000000000000000060f4da7fe284f5dea0000000000000000000000000000000000000000000000000000000000001375",
          "blockHash": "0xacf3b5567bf37fa1b2936b74ddef17778ebcfdad0f20185be65098461f38ad09",
          "blockNumber": "0x1e243ee",
          "blockTimestamp": "0x68d7e6bc",
          "transactionHash": "0xeb12c6cd27d0773b977589d09affa23c9fc189be93679dfc4b4d8db1e60fabda",
          "transactionIndex": "0x17",
          "logIndex": "0x92",
          "removed": false
        },
        {
          "address": "0x65601e5107121948e809822565ac843d54c2a073",
          "topics": [
            "0xddf252ad1be2c89b69c2b068fc378daa952ba7f163c4a11628f55a4df523b3ef",
            "0x00000000000000000000000096b366869d7d5e8efd85e516f497ec29f75eceae",
            "0x00000000000000000000000005e73354cfdd6745c338b50bcfdfa3aa6fa03408"
          ],
          "data": "0x0000000000000000000000000000000000000000000000056bc75e2d63100000",
          "blockHash": "0xacf3b5567bf37fa1b2936b74ddef17778ebcfdad0f20185be65098461f38ad09",
          "blockNumber": "0x1e243ee",
          "blockTimestamp": "0x68d7e6bc",
          "transactionHash": "0xeb12c6cd27d0773b977589d09affa23c9fc189be93679dfc4b4d8db1e60fabda",
          "transactionIndex": "0x17",
          "logIndex": "0x93",
          "removed": false
        },
        {
          "address": "0xcc1d49357aba7f91328e6df60dfc6d09914c9f0e",
          "topics": [
            "0xddf252ad1be2c89b69c2b068fc378daa952ba7f163c4a11628f55a4df523b3ef",
            "0x00000000000000000000000096b366869d7d5e8efd85e516f497ec29f75eceae",
            "0x00000000000000000000000005e73354cfdd6745c338b50bcfdfa3aa6fa03408"
          ],
          "data": "0x0000000000000000000000000000000000000000000000056bc75e2d63100000",
          "blockHash": "0xacf3b5567bf37fa1b2936b74ddef17778ebcfdad0f20185be65098461f38ad09",
          "blockNumber": "0x1e243ee",
          "blockTimestamp": "0x68d7e6bc",
          "transactionHash": "0xeb12c6cd27d0773b977589d09affa23c9fc189be93679dfc4b4d8db1e60fabda",
          "transactionIndex": "0x17",
          "logIndex": "0x94",
          "removed": false
        }
      ],
      "logsBloom": "0x0000000000000001000000000000000000000000000000000000000000000000010000010000000000000000000000000000040008000800000800001000080000000000401000000000000800000000000000000010000000000000c000000000080000020000000000000000000800000000000040000000000010000000000000000005200008000000000000000000000001000000000000000000200000000004000000000000000000000000000000000000800000000000000000000010080842001400800000000010000000000000000000000000000000000020000000004000000000000080000800000004000000008000000000000000010000",
      "type": "0x2",
      "transactionHash": "0xeb12c6cd27d0773b977589d09affa23c9fc189be93679dfc4b4d8db1e60fabda",
      "transactionIndex": "0x17",
      "blockHash": "0xacf3b5567bf37fa1b2936b74ddef17778ebcfdad0f20185be65098461f38ad09",
      "blockNumber": "0x1e243ee",
      "gasUsed": "0x71d5c",
      "effectiveGasPrice": "0xf42af",
      "from": "0x96b366869d7d5e8efd85e516f497ec29f75eceae",
      "to": "0x4b2c77d209d3405f41a037ec6c77f7f5b8e2ca80",
      "contractAddress": null,
      "l1BaseFeeScalar": "0x44d",
      "l1BlobBaseFee": "0x6f",
      "l1BlobBaseFeeScalar": "0xa118b",
      "l1Fee": "0x1caf",
      "l1GasPrice": "0xb",
      "l1GasUsed": "0x13a9"
    }
  ],
  "libraries": [],
  "pending": [],
  "returns": {},
  "timestamp": 1758979772,
  "chain": 84532,
  "commit": "087bbdd"
}