{
  "transactions": [
    {
      "hash": "0x5049f99e89f50fec8ed7eaf0874ca682dae78f1557469376cd7b3d88ea74c335",
      "transactionType": "CALL",
      "contractName": null,
      "contractAddress": "0x65601e5107121948e809822565ac843d54c2a073",
      "function": "approve(address,uint256)",
      "arguments": [
        "0x000000000022D473030F116dDEE9F6B43aC78BA3",
        "115792089237316195423570985008687907853269984665640564039457584007913129639935"
      ],
      "transaction": {
        "from": "0x96b366869d7d5e8efd85e516f497ec29f75eceae",
        "to": "0x65601e5107121948e809822565ac843d54c2a073",
        "gas": "0x8f1d",
        "value": "0x0",
        "input": "0x095ea7b3000000000000000000000000000000000022d473030f116ddee9f6b43ac78ba3ffffffffffffffffffffffffffffffffffffffffffffffffffffffffffffffff",
        "nonce": "0x23",
        "chainId": "0x14a34"
      },
      "additionalContracts": [],
      "isFixedGasLimit": false
    },
    {
      "hash": "0x870206cb555be829307fb140fbed7fe966f31b6acf9a8fc58f8fa50efd19513d",
      "transactionType": "CALL",
      "contractName": null,
      "contractAddress": "0x000000000022d473030f116ddee9f6b43ac78ba3",
      "function": "approve(address,address,uint160,uint48)",
      "arguments": [
        "0x65601e5107121948e809822565Ac843D54c2A073",
        "0x4B2C77d209D3405F41a037Ec6c77F7F5b8e2ca80",
        "1461501637330902918203684832716283019655932542975",
        "281474976710655"
      ],
      "transaction": {
        "from": "0x96b366869d7d5e8efd85e516f497ec29f75eceae",
        "to": "0x000000000022d473030f116ddee9f6b43ac78ba3",
        "gas": "0x96a0",
        "value": "0x0",
        "input": "0x87517c4500000000000000000000000065601e5107121948e809822565ac843d54c2a0730000000000000000000000004b2c77d209d3405f41a037ec6c77f7f5b8e2ca80000000000000000000000000ffffffffffffffffffffffffffffffffffffffff0000000000000000000000000000000000000000000000000000ffffffffffff",
        "nonce": "0x24",
        "chainId": "0x14a34"
      },
      "additionalContracts": [],
      "isFixedGasLimit": false
    },
    {
      "hash": "0x5f965327805363b791f0c999e9d3165e08137969b98572835fcb1d4608b82f1c",
      "transactionType": "CALL",
      "contractName": null,
      "contractAddress": "0xcc1d49357aba7f91328e6df60dfc6d09914c9f0e",
      "function": "approve(address,uint256)",
      "arguments": [
        "0x000000000022D473030F116dDEE9F6B43aC78BA3",
        "115792089237316195423570985008687907853269984665640564039457584007913129639935"
      ],
      "transaction": {
        "from": "0x96b366869d7d5e8efd85e516f497ec29f75eceae",
        "to": "0xcc1d49357aba7f91328e6df60dfc6d09914c9f0e",
        "gas": "0x8f1d",
        "value": "0x0",
        "input": "0x095ea7b3000000000000000000000000000000000022d473030f116ddee9f6b43ac78ba3ffffffffffffffffffffffffffffffffffffffffffffffffffffffffffffffff",
        "nonce": "0x25",
        "chainId": "0x14a34"
      },
      "additionalContracts": [],
      "isFixedGasLimit": false
    },
    {
      "hash": "0xc288d9de4ba78d4166fe875fadf2f2da58b04143c5446b4137677fa00856ccd8",
      "transactionType": "CALL",
      "contractName": null,
      "contractAddress": "0x000000000022d473030f116ddee9f6b43ac78ba3",
      "function": "approve(address,address,uint160,uint48)",
      "arguments": [
        "0xCC1d49357ABa7f91328e6df60dFC6D09914c9F0E",
        "0x4B2C77d209D3405F41a037Ec6c77F7F5b8e2ca80",
        "1461501637330902918203684832716283019655932542975",
        "281474976710655"
      ],
      "transaction": {
        "from": "0x96b366869d7d5e8efd85e516f497ec29f75eceae",
        "to": "0x000000000022d473030f116ddee9f6b43ac78ba3",
        "gas": "0x96a0",
        "value": "0x0",
        "input": "0x87517c45000000000000000000000000cc1d49357aba7f91328e6df60dfc6d09914c9f0e0000000000000000000000004b2c77d209d3405f41a037ec6c77f7f5b8e2ca80000000000000000000000000ffffffffffffffffffffffffffffffffffffffff0000000000000000000000000000000000000000000000000000ffffffffffff",
        "nonce": "0x26",
        "chainId": "0x14a34"
      },
      "additionalContracts": [],
      "isFixedGasLimit": false
    },
    {
      "hash": "0xd185df9f6e26713067eff63bf5211f8ae2a566b391734ef330bfc227e8797f10",
      "transactionType": "CALL",
      "contractName": null,
      "contractAddress": "0x4b2c77d209d3405f41a037ec6c77f7f5b8e2ca80",
      "function": "multicall(bytes[])",
      "arguments": [
        "[0xf702040500000000000000000000000065601e5107121948e809822565ac843d54c2a073000000000000000000000000cc1d49357aba7f91328e6df60dfc6d09914c9f0e0000000000000000000000000000000000000000000000000000000000000bb8000000000000000000000000000000000000000000000000000000000000003c000000000000000000000000f47d8c9d3460acd39b4691a859bc7385d39ee0c0000000000000000000000000000000000000000100000000000000000000000000000000000000000000000000000000000000000000000000000000000000e00000000000000000000000000000000000000000000000000000000000000000, 0xdd46508f00000000000000000000000000000000000000000000000000000000000000400000000000000000000000000000000000000000000000000000000068d7f7860000000000000000000000000000000000000000000000000000000000000400000000000000000000000000000000000000000000000000000000000000004000000000000000000000000000000000000000000000000000000000000000800000000000000000000000000000000000000000000000000000000000000004020d14140000000000000000000000000000000000000000000000000000000000000000000000000000000000000000000000000000000000000000000000040000000000000000000000000000000000000000000000000000000000000080000000000000000000000000000000000000000000000000000000000000024000000000000000000000000000000000000000000000000000000000000002a0000000000000000000000000000000000000000000000000000000000000030000000000000000000000000000000000000000000000000000000000000001a000000000000000000000000065601e5107121948e809822565ac843d54c2a073000000000000000000000000cc1d49357aba7f91328e6df60dfc6d09914c9f0e0000000000000000000000000000000000000000000000000000000000000bb8000000000000000000000000000000000000000000000000000000000000003c000000000000000000000000f47d8c9d3460acd39b4691a859bc7385d39ee0c0ffffffffffffffffffffffffffffffffffffffffffffffffffffffffffff5038000000000000000000000000000000000000000000000000000000000000afc80000000000000000000000000000000000000000000000060f4da7fe284f5dea0000000000000000000000000000000000000000000000056bc75e2d631000010000000000000000000000000000000000000000000000056bc75e2d6310000100000000000000000000000096b366869d7d5e8efd85e516f497ec29f75eceae00000000000000000000000000000000000000000000000000000000000001800000000000000000000000000000000000000000000000000000000000000000000000000000000000000000000000000000000000000000000000000000004000000000000000000000000065601e5107121948e809822565ac843d54c2a073000000000000000000000000cc1d49357aba7f91328e6df60dfc6d09914c9f0e000000000000000000000000000000000000000000000000000000000000004000000000000000000000000065601e5107121948e809822565ac843d54c2a07300000000000000000000000096b366869d7d5e8efd85e516f497ec29f75eceae0000000000000000000000000000000000000000000000000000000000000040000000000000000000000000cc1d49357aba7f91328e6df60dfc6d09914c9f0e00000000000000000000000096b366869d7d5e8efd85e516f497ec29f75eceae]"
      ],
      "transaction": {
        "from": "0x96b366869d7d5e8efd85e516f497ec29f75eceae",
        "to": "0x4b2c77d209d3405f41a037ec6c77f7f5b8e2ca80",
        "gas": "0xb6d90",
        "value": "0x0",
        "input": "0xac9650d800000000000000000000000000000000000000000000000000000000000000200000000000000000000000000000000000000000000000000000000000000002000000000000000000000000000000000000000000000000000000000000004000000000000000000000000000000000000000000000000000000000000001800000000000000000000000000000000000000000000000000000000000000104f702040500000000000000000000000065601e5107121948e809822565ac843d54c2a073000000000000000000000000cc1d49357aba7f91328e6df60dfc6d09914c9f0e0000000000000000000000000000000000000000000000000000000000000bb8000000000000000000000000000000000000000000000000000000000000003c000000000000000000000000f47d8c9d3460acd39b4691a859bc7385d39ee0c0000000000000000000000000000000000000000100000000000000000000000000000000000000000000000000000000000000000000000000000000000000e00000000000000000000000000000000000000000000000000000000000000000000000000000000000000000000000000000000000000000000000000000000000000000000000000000000000000000000000000000000000000464dd46508f00000000000000000000000000000000000000000000000000000000000000400000000000000000000000000000000000000000000000000000000068d7f7860000000000000000000000000000000000000000000000000000000000000400000000000000000000000000000000000000000000000000000000000000004000000000000000000000000000000000000000000000000000000000000000800000000000000000000000000000000000000000000000000000000000000004020d14140000000000000000000000000000000000000000000000000000000000000000000000000000000000000000000000000000000000000000000000040000000000000000000000000000000000000000000000000000000000000080000000000000000000000000000000000000000000000000000000000000024000000000000000000000000000000000000000000000000000000000000002a0000000000000000000000000000000000000000000000000000000000000030000000000000000000000000000000000000000000000000000000000000001a000000000000000000000000065601e5107121948e809822565ac843d54c2a073000000000000000000000000cc1d49357aba7f91328e6df60dfc6d09914c9f0e0000000000000000000000000000000000000000000000000000000000000bb8000000000000000000000000000000000000000000000000000000000000003c000000000000000000000000f47d8c9d3460acd39b4691a859bc7385d39ee0c0ffffffffffffffffffffffffffffffffffffffffffffffffffffffffffff5038000000000000000000000000000000000000000000000000000000000000afc80000000000000000000000000000000000000000000000060f4da7fe284f5dea0000000000000000000000000000000000000000000000056bc75e2d631000010000000000000000000000000000000000000000000000056bc75e2d6310000100000000000000000000000096b366869d7d5e8efd85e516f497ec29f75eceae00000000000000000000000000000000000000000000000000000000000001800000000000000000000000000000000000000000000000000000000000000000000000000000000000000000000000000000000000000000000000000000004000000000000000000000000065601e5107121948e809822565ac843d54c2a073000000000000000000000000cc1d49357aba7f91328e6df60dfc6d09914c9f0e000000000000000000000000000000000000000000000000000000000000004000000000000000000000000065601e5107121948e809822565ac843d54c2a07300000000000000000000000096b366869d7d5e8efd85e516f497ec29f75eceae0000000000000000000000000000000000000000000000000000000000000040000000000000000000000000cc1d49357aba7f91328e6df60dfc6d09914c9f0e00000000000000000000000096b366869d7d5e8efd85e516f497ec29f75eceae00000000000000000000000000000000000000000000000000000000",
        "nonce": "0x27",
        "chainId": "0x14a34"
      },
      "additionalContracts": [],
      "isFixedGasLimit": false
    }
  ],
  "receipts": [
    {
      "status": "0x1",
      "cumulativeGasUsed": "0x6d0356",
      "logs": [
        {
          "address": "0x65601e5107121948e809822565ac843d54c2a073",
          "topics": [
            "0x8c5be1e5ebec7d5bd14f71427d1e84f3dd0314c0f7b2291e5b200ac8c7c3b925",
            "0x00000000000000000000000096b366869d7d5e8efd85e516f497ec29f75eceae",
            "0x000000000000000000000000000000000022d473030f116ddee9f6b43ac78ba3"
          ],
          "data": "0xffffffffffffffffffffffffffffffffffffffffffffffffffffffffffffffff",
          "blockHash": "0xe80039c526ad95ad7c69d3428a950ecc10b90992e9f96316489afa179ac37199",
          "blockNumber": "0x1e24557",
          "blockTimestamp": "0x68d7e98e",
          "transactionHash": "0x5049f99e89f50fec8ed7eaf0874ca682dae78f1557469376cd7b3d88ea74c335",
          "transactionIndex": "0x2d",
          "logIndex": "0xe1",
          "removed": false
        }
      ],
      "logsBloom": "0x00000000000000000000000000000000000000000000000000000000000000000000000000000000000000000000000000000000880000000000000000200000000000000000000000004000000000000000000000000800000000000000000000000000000000000000000000000000000000000000000000000000000000000000000000000000000000000000000000000000000000000000000000000000020000000000000000000000000000000000000000000000000000000000000000080800000000000000000000000000000000000000000000000000000020000010000000000000000080000000000000000000000000000000000000010000",
      "type": "0x2",
      "transactionHash": "0x5049f99e89f50fec8ed7eaf0874ca682dae78f1557469376cd7b3d88ea74c335",
      "transactionIndex": "0x2d",
      "blockHash": "0xe80039c526ad95ad7c69d3428a950ecc10b90992e9f96316489afa179ac37199",
      "blockNumber": "0x1e24557",
      "gasUsed": "0x679e",
      "effectiveGasPrice": "0xf42bd",
      "from": "0x96b366869d7d5e8efd85e516f497ec29f75eceae",
      "to": "0x65601e5107121948e809822565ac843d54c2a073",
      "contractAddress": null,
      "l1BaseFeeScalar": "0x44d",
      "l1BlobBaseFee": "0x5a",
      "l1BlobBaseFeeScalar": "0xa118b",
      "l1Fee": "0x1744",
      "l1GasPrice": "0xa",
      "l1GasUsed": "0x640"
    },
    {
      "status": "0x1",
      "cumulativeGasUsed": "0x6d7064",
      "logs": [
        {
          "address": "0x000000000022d473030f116ddee9f6b43ac78ba3",
          "topics": [
            "0xda9fa7c1b00402c17d0161b249b1ab8bbec047c5a52207b9c112deffd817036b",
            "0x00000000000000000000000096b366869d7d5e8efd85e516f497ec29f75eceae",
            "0x00000000000000000000000065601e5107121948e809822565ac843d54c2a073",
            "0x0000000000000000000000004b2c77d209d3405f41a037ec6c77f7f5b8e2ca80"
          ],
          "data": "0x000000000000000000000000ffffffffffffffffffffffffffffffffffffffff0000000000000000000000000000000000000000000000000000ffffffffffff",
          "blockHash": "0xe80039c526ad95ad7c69d3428a950ecc10b90992e9f96316489afa179ac37199",
          "blockNumber": "0x1e24557",
          "blockTimestamp": "0x68d7e98e",
          "transactionHash": "0x870206cb555be829307fb140fbed7fe966f31b6acf9a8fc58f8fa50efd19513d",
          "transactionIndex": "0x2e",
          "logIndex": "0xe2",
          "removed": false
        }
      ],
      "logsBloom": "0x00010000000000010000000000000000000000000000000000000000000000000000000000000000000000000000000000000000080000000008000010080000000000000000000000000000000000000000000000000000000000004000000000000000000000000000000000000000000000000000000000000000000000000020000000200000000000000000000000000000000000000000000000000000000000000000000000000000000000000000000000000000000000080000000000000800000000800000000000000000000000000000000040000000000000000000000000000000000080000000000000000000000000000000000000000400",
      "type": "0x2",
      "transactionHash": "0x870206cb555be829307fb140fbed7fe966f31b6acf9a8fc58f8fa50efd19513d",
      "transactionIndex": "0x2e",
      "blockHash": "0xe80039c526ad95ad7c69d3428a950ecc10b90992e9f96316489afa179ac37199",
      "blockNumber": "0x1e24557",
      "gasUsed": "0x6d0e",
      "effectiveGasPrice": "0xf42bd",
      "from": "0x96b366869d7d5e8efd85e516f497ec29f75eceae",
      "to": "0x000000000022d473030f116ddee9f6b43ac78ba3",
      "contractAddress": null,
      "l1BaseFeeScalar": "0x44d",
      "l1BlobBaseFee": "0x5a",
      "l1BlobBaseFeeScalar": "0xa118b",
      "l1Fee": "0x1744",
      "l1GasPrice": "0xa",
      "l1GasUsed": "0x6f5"
    },
    {
      "status": "0x1",
      "cumulativeGasUsed": "0x6dd802",
      "logs": [
        {
          "address": "0xcc1d49357aba7f91328e6df60dfc6d09914c9f0e",
          "topics": [
            "0x8c5be1e5ebec7d5bd14f71427d1e84f3dd0314c0f7b2291e5b200ac8c7c3b925",
            "0x00000000000000000000000096b366869d7d5e8efd85e516f497ec29f75eceae",
            "0x000000000000000000000000000000000022d473030f116ddee9f6b43ac78ba3"
          ],
          "data": "0xffffffffffffffffffffffffffffffffffffffffffffffffffffffffffffffff",
          "blockHash": "0xe80039c526ad95ad7c69d3428a950ecc10b90992e9f96316489afa179ac37199",
          "blockNumber": "0x1e24557",
          "blockTimestamp": "0x68d7e98e",
          "transactionHash": "0x5f965327805363b791f0c999e9d3165e08137969b98572835fcb1d4608b82f1c",
          "transactionIndex": "0x2f",
          "logIndex": "0xe3",
          "removed": false
        }
      ],
      "logsBloom": "0x00000000000000000000000000000000000000000000000000000000000000000000000000000000000000000000000000000000880008000000000000200000000000000000000000004000000000000000000000000800000000000000000000000000000000000000000000000000000000000000000000000000000000000000000000000000000000000000000000000000000000000000000000000000020000000000000000000000000000000000000000000000000000000000000000000800000000000000000000000000000000000000000000000000000000000010004000000000000080000000000000000000008000000000000000000000",
      "type": "0x2",
      "transactionHash": "0x5f965327805363b791f0c999e9d3165e08137969b98572835fcb1d4608b82f1c",
      "transactionIndex": "0x2f",
      "blockHash": "0xe80039c526ad95ad7c69d3428a950ecc10b90992e9f96316489afa179ac37199",
      "blockNumber": "0x1e24557",
      "gasUsed": "0x679e",
      "effectiveGasPrice": "0xf42bd",
      "from": "0x96b366869d7d5e8efd85e516f497ec29f75eceae",
      "to": "0xcc1d49357aba7f91328e6df60dfc6d09914c9f0e",
      "contractAddress": null,
      "l1BaseFeeScalar": "0x44d",
      "l1BlobBaseFee": "0x5a",
      "l1BlobBaseFeeScalar": "0xa118b",
      "l1Fee": "0x1744",
      "l1GasPrice": "0xa",
      "l1GasUsed": "0x640"
    },
    {
      "status": "0x1",
      "cumulativeGasUsed": "0x6e4510",
      "logs": [
        {
          "address": "0x000000000022d473030f116ddee9f6b43ac78ba3",
          "topics": [
            "0xda9fa7c1b00402c17d0161b249b1ab8bbec047c5a52207b9c112deffd817036b",
            "0x00000000000000000000000096b366869d7d5e8efd85e516f497ec29f75eceae",
            "0x000000000000000000000000cc1d49357aba7f91328e6df60dfc6d09914c9f0e",
            "0x0000000000000000000000004b2c77d209d3405f41a037ec6c77f7f5b8e2ca80"
          ],
          "data": "0x000000000000000000000000ffffffffffffffffffffffffffffffffffffffff0000000000000000000000000000000000000000000000000000ffffffffffff",
          "blockHash": "0xe80039c526ad95ad7c69d3428a950ecc10b90992e9f96316489afa179ac37199",
          "blockNumber": "0x1e24557",
          "blockTimestamp": "0x68d7e98e",
          "transactionHash": "0xc288d9de4ba78d4166fe875fadf2f2da58b04143c5446b4137677fa00856ccd8",
          "transactionIndex": "0x30",
          "logIndex": "0xe4",
          "removed": false
        }
      ],
      "logsBloom": "0x00010000000000010000000000000000000000000000000000000000000000000000000000000000000000000000000000000000080000000008000010080000000000000000000000000000000000000000000000000000000000000000000000000000000000000000000000000000000000000040000000000000000000000020000000000000000000000000000000000000000000000000000000000000000000000000000000000000000000000000000000000000000000080000000000000800000400000000000010000000000000000000000040000000000000000000000000000000000080000000000000000000000000000000000000000400",
      "type": "0x2",
      "transactionHash": "0xc288d9de4ba78d4166fe875fadf2f2da58b04143c5446b4137677fa00856ccd8",
      "transactionIndex": "0x30",
      "blockHash": "0xe80039c526ad95ad7c69d3428a950ecc10b90992e9f96316489afa179ac37199",
      "blockNumber": "0x1e24557",
      "gasUsed": "0x6d0e",
      "effectiveGasPrice": "0xf42bd",
      "from": "0x96b366869d7d5e8efd85e516f497ec29f75eceae",
      "to": "0x000000000022d473030f116ddee9f6b43ac78ba3",
      "contractAddress": null,
      "l1BaseFeeScalar": "0x44d",
      "l1BlobBaseFee": "0x5a",
      "l1BlobBaseFeeScalar": "0xa118b",
      "l1Fee": "0x1744",
      "l1GasPrice": "0xa",
      "l1GasUsed": "0x6f5"
    },
    {
      "status": "0x1",
      "cumulativeGasUsed": "0x761573",
      "logs": [
        {
          "address": "0x05e73354cfdd6745c338b50bcfdfa3aa6fa03408",
          "topics": [
            "0xdd466e674ea557f56295e2d0218a125ea4b4f0f6f3307b95f85e6110838d6438",
            "0x9425a7b3f51260ddbcd0371e8492158cc6eb704b2d9037c826e6ff2a255a9ca7",
            "0x00000000000000000000000065601e5107121948e809822565ac843d54c2a073",
            "0x000000000000000000000000cc1d49357aba7f91328e6df60dfc6d09914c9f0e"
          ],
          "data": "0x0000000000000000000000000000000000000000000000000000000000000bb8000000000000000000000000000000000000000000000000000000000000003c000000000000000000000000f47d8c9d3460acd39b4691a859bc7385d39ee0c000000000000000000000000000000000000000010000000000000000000000000000000000000000000000000000000000000000000000000000000000000000",
          "blockHash": "0xe80039c526ad95ad7c69d3428a950ecc10b90992e9f96316489afa179ac37199",
          "blockNumber": "0x1e24557",
          "blockTimestamp": "0x68d7e98e",
          "transactionHash": "0xd185df9f6e26713067eff63bf5211f8ae2a566b391734ef330bfc227e8797f10",
          "transactionIndex": "0x31",
          "logIndex": "0xe5",
          "removed": false
        },
        {
          "address": "0x4b2c77d209d3405f41a037ec6c77f7f5b8e2ca80",
          "topics": [
            "0xddf252ad1be2c89b69c2b068fc378daa952ba7f163c4a11628f55a4df523b3ef",
            "0x0000000000000000000000000000000000000000000000000000000000000000",
            "0x00000000000000000000000096b366869d7d5e8efd85e516f497ec29f75eceae",
            "0x0000000000000000000000000000000000000000000000000000000000001377"
          ],
          "data": "0x",
          "blockHash": "0xe80039c526ad95ad7c69d3428a950ecc10b90992e9f96316489afa179ac37199",
          "blockNumber": "0x1e24557",
          "blockTimestamp": "0x68d7e98e",
          "transactionHash": "0xd185df9f6e26713067eff63bf5211f8ae2a566b391734ef330bfc227e8797f10",
          "transactionIndex": "0x31",
          "logIndex": "0xe6",
          "removed": false
        },
        {
          "address": "0x05e73354cfdd6745c338b50bcfdfa3aa6fa03408",
          "topics": [
            "0xf208f4912782fd25c7f114ca3723a2d5dd6f3bcc3ac8db5af63baa85f711d5ec",
            "0x9425a7b3f51260ddbcd0371e8492158cc6eb704b2d9037c826e6ff2a255a9ca7",
            "0x0000000000000000000000004b2c77d209d3405f41a037ec6c77f7f5b8e2ca80"
          ],
          "data": "0xffffffffffffffffffffffffffffffffffffffffffffffffffffffffffff5038000000000000000000000000000000000000000000000000000000000000afc80000000000000000000000000000000000000000000000060f4da7fe284f5dea0000000000000000000000000000000000000000000000000000000000001377",
          "blockHash": "0xe80039c526ad95ad7c69d3428a950ecc10b90992e9f96316489afa179ac37199",
          "blockNumber": "0x1e24557",
          "blockTimestamp": "0x68d7e98e",
          "transactionHash": "0xd185df9f6e26713067eff63bf5211f8ae2a566b391734ef330bfc227e8797f10",
          "transactionIndex": "0x31",
          "logIndex": "0xe7",
          "removed": false
        },
        {
          "address": "0x65601e5107121948e809822565ac843d54c2a073",
          "topics": [
            "0xddf252ad1be2c89b69c2b068fc378daa952ba7f163c4a11628f55a4df523b3ef",
            "0x00000000000000000000000096b366869d7d5e8efd85e516f497ec29f75eceae",
            "0x00000000000000000000000005e73354cfdd6745c338b50bcfdfa3aa6fa03408"
          ],
          "data": "0x0000000000000000000000000000000000000000000000056bc75e2d63100000",
          "blockHash": "0xe80039c526ad95ad7c69d3428a950ecc10b90992e9f96316489afa179ac37199",
          "blockNumber": "0x1e24557",
          "blockTimestamp": "0x68d7e98e",
          "transactionHash": "0xd185df9f6e26713067eff63bf5211f8ae2a566b391734ef330bfc227e8797f10",
          "transactionIndex": "0x31",
          "logIndex": "0xe8",
          "removed": false
        },
        {
          "address": "0xcc1d49357aba7f91328e6df60dfc6d09914c9f0e",
          "topics": [
            "0xddf252ad1be2c89b69c2b068fc378daa952ba7f163c4a11628f55a4df523b3ef",
            "0x00000000000000000000000096b366869d7d5e8efd85e516f497ec29f75eceae",
            "0x00000000000000000000000005e73354cfdd6745c338b50bcfdfa3aa6fa03408"
          ],
          "data": "0x0000000000000000000000000000000000000000000000056bc75e2d63100000",
          "blockHash": "0xe80039c526ad95ad7c69d3428a950ecc10b90992e9f96316489afa179ac37199",
          "blockNumber": "0x1e24557",
          "blockTimestamp": "0x68d7e98e",
          "transactionHash": "0xd185df9f6e26713067eff63bf5211f8ae2a566b391734ef330bfc227e8797f10",
          "transactionIndex": "0x31",
          "logIndex": "0xe9",
          "removed": false
        }
      ],
      "logsBloom": "0x0000000000000001000000000000000000000000000000000000000000000000010000010000000000000000000000000000040008000800000800001000080000000000001000000000000800000000000000000010000000000000c000000002000000020000000000000000000800000000000041000000000010000000000000000005200008000000000000000000020001000000000000000000200000000004000000000000000000000000000100000000000000000000000000000040080802001400800000000010000000000000000000000000000000000020000000004000000000000080000800000004000000008000000000000000010000",
      "type": "0x2",
      "transactionHash": "0xd185df9f6e26713067eff63bf5211f8ae2a566b391734ef330bfc227e8797f10",
      "transactionIndex": "0x31",
      "blockHash": "0xe80039c526ad95ad7c69d3428a950ecc10b90992e9f96316489afa179ac37199",
      "blockNumber": "0x1e24557",
      "gasUsed": "0x7d063",
      "effectiveGasPrice": "0xf42bd",
      "from": "0x96b366869d7d5e8efd85e516f497ec29f75eceae",
      "to": "0x4b2c77d209d3405f41a037ec6c77f7f5b8e2ca80",
      "contractAddress": null,
      "l1BaseFeeScalar": "0x44d",
      "l1BlobBaseFee": "0x5a",
      "l1BlobBaseFeeScalar": "0xa118b",
      "l1Fee": "0x1744",
      "l1GasPrice": "0xa",
      "l1GasUsed": "0x14ea"
    }
  ],
  "libraries": [],
  "pending": [],
  "returns": {},
  "timestamp": 1758980493,
  "chain": 84532,
  "commit": "087bbdd"
}